:100000000C9486000C94A6000C94A6000C94A600F8
:100010000C94A6000C9476070C94A6000C94A600F1
:100020000C94A6000C94A6000C94A6000C94A600B8
:100030000C94A6000C94A6000C94A6000C94A106A7
:100040000C944A030C94A6000C94A6000C94A600F1
:100050000C94A6000C94A6000C94A6000C94A60088
:100060000C94A6000C94A6000C94A6000C94A60078
:100070000C94A6000C94A6000C94A6000C94A60068
:100080000C94A6000C94A6000C94A6003031203AE3
:100090002044656D6F2020202020202000000000DB
:1000A0003032203A20536F756E642054657374208B
:1000B000000000003033203A204F746865726F20D2
:1000C00020202020000000004C6574726F3A2053FD
:1000D000656C65637441707000457869743F2020D9
:1000E0004F4B202A4E4F20202000457869743F2036
:1000F0002A4F4B20204E4F20202000536F66745211
:10010000657365744D656E752020000011241FBE57
:10011000CFEFD0E4DEBFCDBF11E0A0E0B1E0E0ED75
:10012000F5E200E00BBF02C007900D92AE3AB107B6
:10013000D9F71BBE13E0AEEAB1E001C01D92AC35A9
:10014000B107E1F70E947D120C94E6120C940000B6
:10015000CF92DF92EF92FF920F931F93CF93DF9393
:10016000CDB7DEB768970FB6F894DEBF0FBECDBF30
:1001700080E060E071E00E94870281E061E171E06F
:100180000E948702CE010D960E94CC06CE010196F8
:100190000E94CC068091AF01882309F0C5C000E021
:1001A000CC2410E0DD24EE24E394FF24F3943FC03C
:1001B0008F85813009F45BC08889813009F47CC067
:1001C0008989813009F493C08A89813009F498C003
:1001D00081E0BE016F5F7F4F0E94E606898181301A
:1001E00009F457C08B81813009F44AC08C81813079
:1001F00009F46BC08D81813009F470C08E8181302B
:1002000009F488C08F2D6C2D402F0E94BE038E2DC7
:100210006D2D412F0E94BE038FE891E00197F1F709
:1002200000C000008091AF01882309F07DC080E00C
:10023000BE01635F7F4F0E94E6068D85813009F025
:10024000B7CF8B89882309F0B3CF81E0F81609F482
:100250007DC092E0F91609F47FC083E0F81609F03A
:10026000A7CFFF24F3948F85813009F0A5CF8D8926
:10027000882309F0A1CF002309F4AACF0150A8CF09
:100280008985882309F0B2CF112309F4BBCF11501F
:10029000B9CF8F81882309F0A5CF81E0E81609F452
:1002A00052C092E0E91609F454C083E0E81609F060
:1002B00099CFEE24E39496CF8E89882309F080CFDE
:1002C0000F3008F085CF0F5F83CF8A85882309F030
:1002D00091CF1F3008F096CF1F5F94CF8B85882376
:1002E00009F08CCFDD2009F48DCFDA948BCF8F8984
:1002F000882309F069CFCC2009F46ACFCA9468CF6B
:10030000888D882309F064CF9EE09C1508F460CFA7
:10031000C3945ECF8C85882309F074CF9EE09D1531
:1003200008F470CFD3946ECF68960FB6F894DEBF02
:100330000FBECDBFDF91CF911F910F91FF90EF9036
:10034000DF90CF90089592E0E92E4CCF32E0F32E6B
:100350002FCF83E0E82E46CF23E0F22E29CF0E9454
:100360006111089508958FE59AEE0197F1F700C0A5
:10037000000083E488B94698EFE0F0E43197F1F7A4
:1003800000C0000088B94698EFE8F1E03197F1F736
:1003900000C0000088B946988FE39CE90197F1F707
:1003A00000C0000081E488B94698EFE3FCE931978A
:1003B000F1F700C00000089587B1807F87B990E60B
:1003C00098B986B188B18F7988B998B986B188B162
:1003D0008F7988B980E092E030E625E02A95F1F740
:1003E000000038B926B128B12F7928B938B926B11B
:1003F00028B12F7928B9019781F787B18F6787B91D
:10040000089582E488B9469888E488B946980E949D
:10041000DC01089590E498B94698886488B94698B4
:100420000E94DC01089580E488B9469881E488B987
:1004300046980E94DC01089580E488B9469886E4D5
:1004400088B946980E94DC010895982F929597707C
:10045000986498B946988F70806488B946980E94CD
:10046000DC010895982F92959F70906598B94698F1
:100470008F70806588B946988091B4028F5F8093B1
:10048000B4020E94DC0108951F93CF93DF93EC0127
:100490008881882351F010E00E9432021F5FFE0124
:1004A000E10FF11D80818823B9F7DF91CF911F9172
:1004B0000895DC012C912223B9F020E02F5FFC018C
:1004C000E20FF11D30813323C9F7DB019C9180E0FD
:1004D000992341F090838F5FDB01A80FB11D9C91A0
:1004E0009923C1F710820895FC01EFCF87B18F6780
:1004F00087B90E94B3010E94010284E00E940A02AF
:100500000E9413020E941C021092B40208951F93CD
:10051000CF93DF93EB018823A1F41092B4020E94E1
:1005200025028881882349F0219610E10E94320239
:100530008991882311F01150C9F7DF91CF911F9154
:100540000895813019F08091B402E9CF80E480935E
:10055000B402E5CFF89480E587BD82E084BD93E0E6
:1005600095BD80936E0078940895F89414BC109211
:100570006E00789408952898289A08952998299AC1
:100580000895882311F42A9808952A9A089520E05E
:1005900030E008C02A9A2898289A2F5F3F4F2031D0
:1005A000310589F0AC01022E02C0569547950A9498
:1005B000E2F740FDEFCF2A982898289A2F5F3F4F07
:1005C0002031310579F7089520E030E8803110F0CE
:1005D000C901089502C0369527958A95E2F7C901A9
:1005E0000895DC01603100F52091F8023091F902A4
:1005F00070E0FB01EE0FFF1FE20FF31F808191817E
:100600008095909511969C938E93605F7F4F660FB7
:10061000771F620F731FFB018081918180959095F8
:1006200013969C938E93129708956091F502603112
:1006300048F080E090E89093F7028093F6021092E1
:10064000F50260E08AEF92E00E94F1028091FC02E4
:100650009091FD020E94C7028091FA029091FB02E4
:100660000E94C7028091F6029091F7020E94C70291
:100670002998299A8091F6029091F702969587958C
:100680009093F7028093F6028091F5028F5F80933A
:10069000F50208951F920F920FB60F920BB60F92AC
:1006A00011242F933F934F935F936F937F938F9377
:1006B0009F93AF93BF93CF93EF93FF93F894CFB7EC
:1006C0000E941503CFBF7894FF91EF91CF91BF9116
:1006D000AF919F918F917F916F915F914F913F91DA
:1006E0002F910F900BBE0F900FBE0F901F9018957B
:1006F000CF93C0E20E941503C150E1F780E090E083
:100700000E94C70280E090E00E94C70280E090E073
:100710000E94C70280E090E00E94C7022998299AAF
:10072000CF91089584B1876084B9E5EBF2E0F0934E
:10073000F902E093F80280E090E89093F70280934A
:10074000F6021092F5021192119282E0E53FF8074D
:10075000D1F70E947803089580E090E89093F70223
:100760008093F6021092F502E091F802F091F902FE
:1007700080E2119211928150E1F70895882361F58A
:10078000403108F057C0603108F054C0A091F80221
:10079000B091F90250E0FA01EE0FFF1FEA0FFB1FC4
:1007A00020E030E802C0369527956A95E2F720955B
:1007B0003095808191818223932391838083FA01F4
:1007C0007096EE0FFF1FEA0FFB1F8081918182233D
:1007D0009323918380830895813069F1823009F4F5
:1007E00045C0833039F5403128F5603118F5A091C6
:1007F000F802B091F90250E0FA01EE0FFF1FEA0F84
:10080000FB1F20E030E802C0369527956A95E2F795
:1008100080819181822B932B91838083FA01709642
:10082000EE0FFF1FEA0FFB1F80819181822B932B1C
:100830009183808308954031E8F76031D8F750E024
:10084000440F551FE091F802F091F902E40FF51FF3
:1008500080E090E802C0969587956A95E2F720813E
:100860003181282B392B318320830895403110F7B3
:10087000603100F750E0405F5F4FE2CFAF92BF9230
:10088000CF92DF92EF92FF920F931F93CF93DF935C
:10089000182FD62FC42FF22ED22ED61AD7FC50C026
:1008A000BB24B394E02EEC1AE7FC46C0CC24C394DE
:1008B000812F6D2F4C2F0E94BE03ED1424F10C17D5
:1008C000B9F0DD0CAE2CA194AA0CFC2EFC0CC0E0FF
:1008D00001C0F82ECD0DCE1514F0DB0DCA0D812F01
:1008E0006D2F4F2D0E94BE038F2D8C0D0F1589F794
:1008F000DF91CF911F910F91FF90EF90DF90CF90FC
:10090000BF90AF900895FD1699F3EE0CAD2CA19415
:10091000AA0CDB0D00E001C0D82F0E0D0D1514F050
:10092000CC0D0A0D812F6D2F4C2F0E94BE038D2FF1
:100930008B0DFD1689F7DCCFE194CC24CA94B8CF97
:10094000D194BB24BA94AECF882309F444C040911B
:10095000F8025091F902282F332727FD3095FA012C
:100960001816D4F570E080819181022E02C0880FA4
:10097000991F0A94E2F7819391937F5F703199F701
:100980001616CCF5DA0120E030E0462F552747FD5A
:100990005095BA01660F771F09C011961C921E92DE
:1009A0002F5F3F4F129620313105A1F0C901840F0E
:1009B000951F803191058CF7FD01E60FF71F8081AF
:1009C000918111969C938E932F5F3F4F1296203109
:1009D000310561F70895089570E180819181022EBB
:1009E00002C0969587950A94E2F78193919371508E
:1009F000A1F716163CF2A62FBB27A7FDB0956FE016
:100A0000862F90E0FC01EA0FFB1FF7FD15C0EE0FEB
:100A1000FF1FE40FF51F20813181FC01EE0FFF1F46
:100A2000E40FF51F318320836150862F90E0FC0195
:100A3000EA0FFB1FF7FFEBCFFC01EE0FFF1FE40FE8
:100A4000F51F118210826150F0CF8091F8029091D1
:100A5000F90208959093F9028093F8020895109294
:100A60000F030895CF93DF930F92CDB7DEB789833D
:100A70000E9452078981813081F0813040F08230BC
:100A800011F40E94AF010F90DF91CF9108950E9461
:100A9000A8000F90DF91CF9108950E94B2010F90AE
:100AA000DF91CF910895CF93DF93CDB7DEB76897ED
:100AB0000FB6F894DEBF0FBECDBF80E193E068ECC7
:100AC00070E00E94DF1280E060E173E00E94870224
:100AD00080E193E06CE870E00E94DF1281E060E169
:100AE00073E00E9487020E945407CE010D960E9477
:100AF000CC06CE0101960E94CC0612E08091AF0197
:100B0000882309F042C080E0BE01635F7F4F0E94EE
:100B1000E6068D85813009F451C08F85813009F456
:100B200059C08889813009F492C081E0BE016F5FAD
:100B30007F4F0E94E6068981813009F47FC08B8156
:100B4000813009F464C08C818130C1F69A85992383
:100B5000A9F690910F03992309F462C0913009F42A
:100B60008FC0923059F610920F0380E193E06CE849
:100B700070E00E94DF1281E060E173E00E94870272
:100B80008091AF01882309F4BECF80E193E068EC47
:100B900070E00E94DF1280E060E173E00E94870253
:100BA00080E193E06CE870E00E94DF1281E060E198
:100BB00073E00E9487021092AF01A5CF8B89882332
:100BC00009F0ABCF80910F030E9432058F858130F1
:100BD00009F0A7CF9D89992309F0A3CF90910F0326
:100BE000992309F43FC0913009F458C0923009F0BC
:100BF0009CCF10920F0380E193E06CE870E00E94BC
:100C0000DF1281E060E173E00E9487028ECF998558
:100C1000992309F098CF90910F03992309F09ECF63
:100C200080930F0380E193E060EA70E00E94DF129E
:100C300081E060E173E00E94870260CF8F818823AA
:100C400009F07DCF80910F030E94320578CF9E89F5
:100C5000992309F06ACF90910F03992319F09130ED
:100C600029F6C7CF80930F0380E193E060EA70E03C
:100C70000E94DF1281E060E173E00E94870255CF9D
:100C800010930F0380E193E064EB70E00E94DF12A9
:100C900081E060E173E00E94870230CF10930F0380
:100CA00080E193E064EB70E00E94DF1281E060E19C
:100CB00073E00E94870239CF8AB180638AB91092AB
:100CC000800085E0809381000895EFE6F0E0808168
:100CD0008E7F80838BB18F7C8BB9089580912103A7
:100CE0000895CF93DF93D82FC62F843FC0F440E000
:100CF00050E088E120E0209322038C9FC02D112436
:100D0000C09321035093850040938400B09A809152
:100D10006F00816080936F00DF91CF910895282F3D
:100D200030E040E050E064E274EF80E090E00E9448
:100D3000A91221958D2F6AE00E948A12422F50E05D
:100D4000DACF1F920F920FB60F9211242F938F9329
:100D50009F932FB78091220390E09093850080931A
:100D600084008BB190E189278BB95C990CC080918C
:100D70002103815080932103882329F480916F00FF
:100D80008E7F80936F002FBF9F918F912F910F9037
:100D90000FBE0F901F901895FC01108211821282D5
:100DA000138214821582168217821086118612868B
:100DB0001386089581B111B88AB183738AB982B15B
:100DC0008FEF82B98BB18C6C8BB90895FB01908148
:100DD0009683918197839281908793819187948163
:100DE0009287958193878823A9F4019916C081E0A1
:100DF0008083009B15C01182029B16C01282039B48
:100E000017C01382049B18C01482059919C081E091
:100E1000858308958130B1F0089510820099EBCF59
:100E200081E081830299EACF81E082830399E9CF4F
:100E300081E083830499E8CF81E08483059BE7CF39
:100E400015820895069B13C0108207991BC081E08C
:100E500081834B9B14C012824A9B0EC013824E9B0F
:100E600008C014824F99ECCF81E085830895808378
:100E7000ECCF81E08483F6CF81E08383F0CF81E003
:100E80008283EACF1182E5CF089524982C9AE8E670
:100E9000F0E0808182608083ECE6F0E08081806118
:100EA0008083089578940895ECE6F0E080818F7E49
:100EB00080830895CF93DF93C3E2D3E0CE016BEF3D
:100EC00070E00E94DF1280E0BE010E948702CE0126
:100ED0006AEE70E00E94DF1281E0BE010E9487028C
:100EE00081E08093AF01DF91CF9108951F920F921F
:100EF0000FB60F920BB60F9211242F933F934F937F
:100F00005F936F937F938F939F93AF93BF93CF9391
:100F1000EF93FF93CFB78FE99FE00197F1F700C000
:100F200000000E945A077894CFBFFF91EF91CF91B4
:100F3000BF91AF919F918F917F916F915F914F91F1
:100F40003F912F910F900BBE0F900FBE0F901F90EF
:100F500018950E94AA0280E062E271E00E94870276
:100F600081E080932B0280933C0267E047E00E947F
:100F7000BE0381E068E048E00E94BE0382E0809307
:100F80002C0280933B0267E048E00E94BE0382E0AF
:100F900068E047E00E94BE0383E08093B40160E014
:100FA00040E00E94BE031092B1011092B00108957A
:100FB00020E030E0F901E295F295F07FFE27E07F36
:100FC000FE27EC54FE4F80E090E0119201968031B4
:100FD0009105D9F72F5F3F4F2031310559F708951B
:100FE00040913F03509140036091390370913A035F
:100FF000FA01E295F295F07FFE27E07FFE27E60FEB
:10100000F71FEC54FE4F8091B001808380E00E9476
:10101000BE038091B0016091390340913F030E946B
:10102000BE036091390370913A036F307105FCF093
:1010300010923A031092390340913F0350914003BC
:10104000FA01E295F295F07FFE27E07FFE27EC544F
:10105000FE4F8081992787FD90959093B1018093F1
:10106000B00183E0808360E00E94BE0308956F5F5B
:101070007F4F70933A036093390340913F0350913F
:101080004003FA01E295F295F07FFE27E07FFE270C
:10109000E60FF71FEC54FE4F8081992787FD90954E
:1010A0009093B1018093B00183E080830E94BE03DE
:1010B000089540913F03509140036091390370912E
:1010C0003A03FA01E295F295F07FFE27E07FFE27D2
:1010D000E60FF71FEC54FE4F8091B001808380E053
:1010E0000E94BE038091B0016091390340913F039B
:1010F0000E94BE036091390370913A0316161706D9
:1011000014F56150704070933A0360933903409135
:101110003F0350914003FA01E295F295F07FFE27DC
:10112000E07FFE27E60FF71FEC54FE4F80819927E2
:1011300087FD90959093B1018093B00183E0808307
:101140000E94BE0308958FE090E090933A0380934D
:10115000390340913F0350914003FA01E295F29523
:10116000F07FFE27E07FFE27EC54FE4F878599270E
:1011700087FD90959093B1018093B00183E08787BC
:101180006FE00E94BE03089540913F0350914003D9
:101190006091390370913A03FA01E295F295F07F7C
:1011A000FE27E07FFE27E60FF71FEC54FE4F8091ED
:1011B000B001808380E00E94BE038091B001609105
:1011C000390340913F030E94BE0340913F03509179
:1011D00040031416150614F5415050405093400337
:1011E00040933F036091390370913A03FA01E2950D
:1011F000F295F07FFE27E07FFE27E60FF71FEC5405
:10120000FE4F8081992787FD90959093B10180933F
:10121000B00183E080830E94BE0308958FE090E0D8
:101220009093400380933F036091390370913A0398
:10123000FB01EC55FD4F8081992787FD9095909398
:10124000B1018093B00183E080834FE00E94BE0330
:10125000089540913F03509140036091390370918C
:101260003A03FA01E295F295F07FFE27E07FFE2730
:10127000E60FF71FEC54FE4F8091B001808380E0B1
:101280000E94BE038091B0016091390340913F03F9
:101290000E94BE0340913F03509140034F305105DF
:1012A000CCF01092400310923F036091390370918B
:1012B0003A03FB01EC54FE4F8081992787FD9095FE
:1012C0009093B1018093B00183E0808340E00E945D
:1012D000BE0308954F5F5F4F5093400340933F0319
:1012E0006091390370913A03FA01E295F295F07F2B
:1012F000FE27E07FFE27E60FF71FEC54FE4F8081AC
:10130000992787FD90959093B1018093B00183E078
:1013100080830E94BE030895EF92FF920F931F9364
:10132000CF93DF93A0913903B0913A03B0933E037A
:10133000A0933D03B0934803A0934703C0913F039C
:10134000D0914003D0934603C0934503D0935B03F1
:10135000C0935A038091B0019091B101009709F0B8
:101360005EC4C031D1050CF062C78E010F5F1F4F04
:10137000F801E295F295F07FFE27E07FFE27EA0F65
:10138000FB1FEC54FE4F8081882309F4A2C04091DA
:10139000AC015091AD01992787FD90958417950771
:1013A00009F497C0CF30D10509F441C79E01E1E0AF
:1013B000EE2EF12C2FC030935B0320935A03203183
:1013C00031050CF082C0FE013296E295F295F07F75
:1013D000FE27E07FFE278091470390914803E80FA6
:1013E000F91FEC54FE4F8081882309F46EC04091B0
:1013F000AC015091AD01992787FD90958417950711
:1014000009F463C02F30310509F45FC0E901890197
:101410000F5F1F4FF9013296E295F295F07FFE279C
:10142000E07FFE27EA0FFB1FEC54FE4F80819927D7
:1014300087FD909598014817590709F0BCCF809116
:10144000450390914603081719079CF1482FFC01AA
:10145000E295F295F07FFE27E07FFE27EA0FFB1F63
:10146000EC54FE4F8091AC01808380E060913903A1
:101470000E94BE038091AC01609139034091450305
:101480000E94BE038091450390914603019690937C
:10149000460380934503C0915A03D0915B039E019C
:1014A0002F5F3F4FA0913903B0913A0328173907B6
:1014B0006CF6F0923803E092370330935B0320938D
:1014C0005A03203131050CF47ECFC0913F03D091F7
:1014D0004003B0934803A0934703B0933E03A09307
:1014E0003D03D0935B03C0935A03D0934603C0934C
:1014F00045031C161D060CF0B4C08E0101501040AF
:10150000F801E295F295F07FFE27E07FFE27EA0FD3
:10151000FB1FEC54FE4F8081882309F4A2C0409148
:10152000AC015091AD01992787FD909584179507DF
:1015300009F497C0C130D10509F493C09E01E1E0E0
:10154000EE2EF12C2FC030935B0320935A0312161A
:1015500013060CF082C0FE013297E295F295F07FFF
:10156000FE27E07FFE278091470390914803E80F14
:10157000F91FEC54FE4F8081882309F46EC040911E
:10158000AC015091AD01992787FD9095841795077F
:1015900009F463C02130310509F45FC0E901890114
:1015A00001501040F9013297E295F295F07FFE2745
:1015B000E07FFE27EA0FFB1FEC54FE4F8081992746
:1015C00087FD909598014817590709F0BCCF4091C5
:1015D000450350914603401751079CF1FA01E295EB
:1015E000F295F07FFE27E07FFE27EA0FFB1FEC5409
:1015F000FE4F8091AC01808380E0609139030E94AE
:10160000BE038091AC0160913903409145030E9473
:10161000BE034091450350914603415050405093C2
:10162000460340934503C0915A03D0915B039E014A
:1016300021503040A0913903B0913A03421753072B
:101640006CF6F0923803E092370330935B032093FB
:101650005A03121613060CF47ECFC0913F03D091AB
:101660004003B0934803A0934703B0933E03A09375
:101670003D03D0935B03C0935A03D0934603C093BA
:1016800045039E0122953295307F3227207F3227F5
:10169000A031B1050CF0BAC5F901EC54FE4FEA0FC8
:1016A000FB1F8181882309F4A0C06091AC01709177
:1016B000AD01992787FD90958617970709F495C086
:1016C000AF30B10509F4A2C5AD0101E010E031C0B1
:1016D000B0934803A0934703A031B1050CF081C03B
:1016E000E0915A03F0915B03E295F295F07FFE27BB
:1016F000E07FFE27EC54FE4FE40FF51F8281882324
:1017000009F46FC06091AC017091AD01992787FD1C
:1017100090958617970709F464C0AF30B10509F4B6
:1017200060C0AD019E0122953295307F3227207F27
:101730003227F901EC54FE4FEA0FFB1F82819927F3
:1017400087FD909511966817790711F680913D03F2
:1017500090913E03A817B907C4F1682F0BC02091E0
:101760003F0330914003682F22953295307F322716
:10177000207F3227820F931F8C549E4F2091AC0103
:10178000FC01208380E040913F030E94BE038091D2
:10179000AC0160913D0340913F030E94BE038091E4
:1017A0003D0390913E03019690933E0380933D0349
:1017B0004091470350914803DA011196A817B907E1
:1017C00074F6C0913F03D091400310933803009307
:1017D0003703B0934803A0934703A031B1050CF43D
:1017E0007FCFA0913903B0913A03B0934803A093FF
:1017F0004703B0933E03A0933D03D0935B03C09394
:101800005A03D0934603C09345031A161B060CF0E7
:10181000ECC49E0122953295307F3227207F3227FB
:10182000FD01E20FF31FED54FE4F8081882309F480
:10183000A0C06091AC017091AD01992787FD909592
:101840008617970709F495C0A130B10509F4CDC4F6
:10185000AD0101E010E031C0B0934803A09347030D
:101860001A161B060CF081C0E0915A03F0915B033D
:10187000E295F295F07FFE27E07FFE27E40FF51F4B
:10188000EE54FE4F8081882309F46FC06091AC0153
:101890007091AD01992787FD90958617970709F4F8
:1018A00064C0A130B10509F460C0AD019E0122956C
:1018B0003295307F3227207F3227FD01E20FF31F60
:1018C000EE54FE4F8081992787FD909511976817F8
:1018D000790711F660913D0370913E036A177B070B
:1018E000C4F1CB010BC020913F0330914003BC01F8
:1018F00022953295307F3227207F3227820F931F27
:101900008C549E4F2091AC01FC01208380E04091DB
:1019100045030E94BE038091AC0160913D0340915C
:1019200045030E94BE0380913D0390913E030197C1
:1019300090933E0380933D034091470350914803A9
:10194000DA0111978A179B0774F6C0913F03D09173
:1019500040031093380300933703B0934803A093D8
:1019600047031A161B060CF47FCFA0913903B091E0
:101970003A03B0934803A0934703B0933E03A09368
:101980003D03D0935B03C0935A03D0934603C093A7
:101990004503A031B1050CF06CC4C031D1050CF089
:1019A0004DC18E010F5F1F4FF801E295F295F07F58
:1019B000FE27E07FFE27EC54FE4FEA0FFB1F8181DC
:1019C000882309F43BC14091AC015091AD019927A6
:1019D00087FD90958417950709F430C1CF30D10564
:1019E00009F42CC1AF30B10509F443C49E01E1E014
:1019F000EE2EF12C37C09801B0934803A093470313
:101A000030935B0320935A03A031B1050CF00EC153
:101A1000203131050CF00AC1FE01E295F295F07F0C
:101A2000FE27E07FFE27EC52FE4FEA0FFB1F81816D
:101A3000882309F4FBC04091AC015091AD01992776
:101A400087FD90958417950709F4F0C02F30310574
:101A500009F4ECC0AF30B10509F4E8C0E90189012F
:101A60000F5F1F4FF901E295F295F07FFE27E07FAF
:101A7000FE27EC52FE4FEA0FFB1F8281992787FD5C
:101A8000909511964817590709F0B5CF60913D031D
:101A900070913E039801A617B7070CF449C0409116
:101AA000450350914603041715070CF441C0CB01C0
:101AB00004C024173507E4F1BC01FA01E295F29560
:101AC000F07FFE27E07FFE27E80FF91FEC54FE4F62
:101AD0008091AC01808380E00E94BE038091AC01C4
:101AE00060913D03409145030E94BE0380913D03F8
:101AF00090913E03019690933E0380933D03409165
:101B00004503509146034F5F5F4F50934603409308
:101B10004503A0914703B09148031196C0915A0321
:101B2000D0915B039E012F5F3F4FA817B9070CF6BA
:101B3000F0923803E09237035FCF809137039091A2
:101B400038038130910509F06AC08091B20190910B
:101B5000B30101969093B3018093B2012091AA0141
:101B60003091AB012F5F3F4F3093AB012093AA011F
:101B700080FD24C380E062E271E00E948702409110
:101B80003F03509140036091390370913A03FA0189
:101B9000E295F295F07FFE27E07FFE27E60FF71F24
:101BA000EC54FE4F8091AC01808380E00E94BE0324
:101BB0008091AC016091390340913F030E94BE03C4
:101BC00040913F03509140036091390370913A0373
:101BD000FA01E295F295F07FFE27E07FFE27E60FFF
:101BE000F71FEC54FE4F8081992787FD90959093C5
:101BF000B1018093B00183E0808380E00E94BE0346
:101C00008091AC016091390340913F030E94BE0373
:101C100083E06091390340913F030E94BE03DF914E
:101C2000CF911F910F91FF90EF900895A0913903EC
:101C3000B0913A03C0913F03D0914003B093480361
:101C4000A0934703B0933E03A0933D03D0935B035F
:101C5000C0935A03D0934603C09345031A161B063C
:101C60000CF0F6C21C161D060CF0AEC28E0101501F
:101C70001040F801E295F295F07FFE27E07FFE2705
:101C8000EA0FFB1FED54FE4F8081882309F49CC2AC
:101C90004091AC015091AD01992787FD9095841733
:101CA000950709F491C2C130D10509F48DC2A13064
:101CB000B10509F489C2BE019D01E1E0EE2EF12CCF
:101CC00038C0B801309348032093470370935B03F7
:101CD00060935A03121613060CF098C016161706D6
:101CE0000CF094C0FE01E295F295F07FFE27E07FB4
:101CF000FE27E20FF31FED56FE4F8081882309F483
:101D000085C04091AC015091AD01992787FD909518
:101D10008417950709F47AC06130710509F476C01B
:101D20002130310509F472C0D901EB018B0101505A
:101D30001040FB01E295F295F07FFE27E07FFE2741
:101D4000E20FF31FEE56FE4F8081992787FD909595
:101D50009D01215030404817590709F0B2CF8091BA
:101D60003D0390913E03B801821793070CF449C0DC
:101D700040914503509146034017510724F441C058
:101D800046175707F4F1682FFA01E295F295F07FB4
:101D9000FE27E07FFE27E80FF91FEC54FE4F8091ED
:101DA000AC01808380E00E94BE038091AC01609111
:101DB0003D03409145030E94BE0380913D039091F5
:101DC0003E03019790933E0380933D03409145036A
:101DD0005091460341505040509346034093450371
:101DE000209147033091480321503040C0915A035D
:101DF000D0915B03BE0161507040821793070CF0D5
:101E0000BFCFF0923803E09237035CCFA091390343
:101E1000B0913A03C0913F03D0914003B09348037F
:101E2000A0934703B0933E03A0933D03D0935B037D
:101E3000C0935A03D0934603C09345031A161B065A
:101E40000CF006C2C031D1050CF0D3C08E010F5F7B
:101E50001F4FF801E295F295F07FFE27E07FFE2705
:101E6000EA0FFB1FED54FE4F8081882309F4C1C0A7
:101E70004091AC015091AD01992787FD9095841751
:101E8000950709F4B6C0CF30D10509F4B2C0A1302E
:101E9000B10509F4DDC19E01E1E0EE2EF12C37C061
:101EA000E801B0934803A0934703D0935B03C0932A
:101EB0005A031A161B060CF094C0C031D1050CF061
:101EC00090C0F901E295F295F07FFE27E07FFE27B2
:101ED000EA0FFB1FED52FE4F8081882309F481C079
:101EE0004091AC015091AD01992787FD90958417E1
:101EF000950709F476C0CF30D10509F472C0A1303E
:101F0000B10509F46EC09E018E010F5F1F4FFE01E7
:101F1000E295F295F07FFE27E07FFE27EA0FFB1F98
:101F2000EE52FE4F8081992787FD909511974817B3
:101F3000590709F0B5CF60913D0370913E03E80168
:101F40006A177B070CF448C0409145035091460343
:101F5000041715070CF440C0CB0104C0C417D50703
:101F6000DCF1BC01FA01E295F295F07FFE27E07FFB
:101F7000FE27E80FF91FEC54FE4F8091AC018083DF
:101F800080E00E94BE038091AC0160913D034091CE
:101F900045030E94BE0380913D0390913E0301974B
:101FA00090933E0380933D03409145035091460337
:101FB0004F5F5F4F5093460340934503A091470303
:101FC000B0914803119720915A0330915B03E901C6
:101FD00021968A179B0714F6F0923803E092370394
:101FE00060CFA0913903B0913A03C0913F03D091E3
:101FF0004003B0934803A0934703B0933E03A093DC
:102000003D03D0935B03C0935A03D0934603C09320
:102010004503A031B1050CF090CD1C161D060CF047
:102020008CCD8E0101501040F801E295F295F07FC1
:10203000FE27E07FFE27EC54FE4FEA0FFB1F818155
:10204000882309F47ACD4091AC015091AD019927D4
:1020500087FD90958417950709F46FCDC130D105A0
:1020600009F46BCDAF30B10509F467CDBE019D0118
:10207000E1E0EE2EF12C38C0B801309348032093F4
:10208000470370935B0360935A03203131050CF0D2
:1020900054CD161617060CF050CDFE01E295F295C0
:1020A000F07FFE27E07FFE27EC56FE4FE20FF31F86
:1020B0008181882309F441CD4091AC015091AD015B
:1020C000992787FD90958417950709F436CD6130DF
:1020D000710509F432CD2F30310509F42ECDEB0115
:1020E000D9018B0101501040FB01E295F295F07F80
:1020F000FE27E07FFE27EC56FE4FE20FF31F8281A2
:10210000992787FD90959D012F5F3F4F48175907ED
:1021100009F0B2CF80913D0390913E03B80128179A
:1021200039070CF446C040914503509146033DC029
:10213000682FFA01E295F295F07FFE27E07FFE27F7
:10214000E80FF91FEC54FE4F8091AC01808380E0D2
:102150000E94BE038091AC0160913D034091450314
:102160000E94BE0380913D0390913E03019690939F
:102170003E0380933D0340914503509146034150F7
:1021800050405093460340934503209147033091BC
:1021900048032F5F3F4FC0915A03D0915B03BE01AC
:1021A000615070402817390724F0461757070CF084
:1021B000BFCFF0923803E09237035FCF80E063E354
:1021C00071E00E948702DBCCB0934803A0934703E1
:1021D000B0933E03A0933D03D0935B03C0935A0397
:1021E000D0934603C09345032DCEB0934803A093EC
:1021F0004703B0933E03A0933D03D0935B03C0938A
:102200005A03D0934603C0934503C7CBB09348030A
:10221000A0934703B0933E03A0933D03D0935B0389
:10222000C0935A03D0934603C0934503F9CAB093B1
:102230004803A0934703B0933E03A0933D03D0937C
:102240005B03C0935A03D0934603C093450355C91B
:10225000B0934803A0934703B0933E03A0933D037C
:10226000D0935B03C0935A03D0934603C0934503B6
:10227000D4CEB0934803A0934703B0933E03A093FA
:102280003D03D0935B03C0935A03D0934603C0939E
:102290004503E8CC8091B2019091B30101969093EF
:1022A000B3018093B20180FD06C080E062E271E07C
:1022B0000E948702089580E063E371E00E94870234
:1022C0000895CF93DF93CDB7DEB768970FB6F89434
:1022D000DEBF0FBECDBFCE010D960E94CC06CE0153
:1022E00001960E94CC060E94A90700E010E022E0BF
:1022F000E22EF12C3EC08889813009F480C08989A2
:10230000813009F494C08A89813009F49CC08D859C
:10231000813009F4B0C08E85813009F4C4C080E0FA
:10232000BE016F5F7F4F0E94E6068B81813009F40A
:102330004EC08C81813009F456C08D81813009F402
:102340006AC08E81813009F48AC08981813009F4A4
:102350009EC08A81813009F4B2C08091B20190910F
:10236000B301B7010E94961201969093AD0180933C
:10237000AC01109242031092410310923803109264
:10238000370385E08A95F1F700000F5F1F4F8FE05C
:10239000003A180709F4A9C085E10C37180709F4B9
:1023A0009AC081E0BE01635F7F4F0E94E6068F8581
:1023B000813009F0A0CF8D89882309F09CCF0E943D
:1023C000C40881E064E471E00E948702A8CF898597
:1023D000882309F0AECF0E94C40881E064E471E074
:1023E0000E948702BACF8A85882309F0A6CF0E946F
:1023F000290981E065E571E00E948702AECF8E89F0
:10240000882309F07CCF0E94290981E065E571E00D
:102410000E94870284CF8B85882309F092CF0E9487
:10242000590881E066E671E00E94870296CF8F89A5
:10243000882309F068CF0E94590881E066E671E0C0
:102440000E9487026CCF888D882309F060CF0E949C
:10245000F00781E067E771E00E94870260CF8C851A
:10246000882309F072CF0E94F00781E067E771E0EE
:102470000E94870272CF8B89882309F04CCF0E947B
:102480008C0981E068E871E00E94870248CF8F8163
:10249000882309F05ECF0E948C0981E068E871E032
:1024A0000E9487025ACF8C89882309F038CF0E9476
:1024B0004A1181E069E971E00E94870230CF888586
:1024C000882309F04ACF0E944A1181E069E971E04E
:1024D0000E94870242CF83E06091390340913F031D
:1024E0000E94BE0300E010E05CCF80E06091390301
:1024F00040913F030E94BE0354CF0E9476020E9487
:1025000092030E942F050E9445070E94DA060E944E
:102510005305FDCF991B79E004C0991F961708F069
:10252000961B881F7A95C9F78095089597FB092E09
:1025300007260AD077FD04D02ED006D000201AF44A
:10254000709561957F4F0895F6F7909581959F4F0F
:102550000895A1E21A2EAA1BBB1BFD010DC0AA1FE4
:10256000BB1FEE1FFF1FA217B307E407F50720F0FC
:10257000A21BB30BE40BF50B661F771F881F991F77
:102580001A9469F760957095809590959B01AC01C0
:10259000BD01CF010895AA1BBB1B51E107C0AA1FB3
:1025A000BB1FA617B70710F0A61BB70B881F991FF4
:1025B0005A95A9F780959095BC01CD010895FB012E
:1025C000DC0105900D920020E1F70895F894FFCF0B
:1025D00052756E6E696E672044656D6F2E2E2E20CB
:1025E000002020202020202020202020202020200B
:1025F0002000477265656E207475726E2020202061
:10260000202000526564207475726E2020202020E6
:102610002020200075652020202020202020202040
:102620002020202000736974612020202020202099
:102630002020202020006869646172692020202009
:10264000202020202020006D696769202020202084
:1026500020202020202020007075742020202020A1
:10266000202020202020202000736B697020202053
:0E26700020202020202020202000010001003A
:00000001FF
