:100000000C9486000C94A5000C94A5000C94A500FB
:100010000C94A5000C94A1070C94A5000C94A500C9
:100020000C94A5000C94A5000C94A5000C94A500BC
:100030000C94A5000C94A5000C94A5000C94CC067F
:100040000C94A5000C94A5000C94A5000C94A5009C
:100050000C94A5000C94A5000C94A5000C94A5008C
:100060000C94A5000C94A5000C94A5000C94A5007C
:100070000C94A5000C94A5000C94A5000C94A5006C
:100080000C94A5000C94A5000C94A5004C6574720A
:100090006F3A2053656C6563744170700030312095
:1000A0003A2044656D6F2020202020202000000091
:1000B000003032203A20536F756E6420546573749B
:1000C00020000000003033203A204F746865726FC2
:1000D000202020202000000000536F6674526573BA
:1000E00065744D656E7520200000457869743F2069
:1000F0002A4F4B20204E4F20202000457869743F26
:1001000020204F4B202A4E4F2020200011241FBEBC
:10011000CFEFD0E4DEBFCDBF11E0A0E0B1E0E0E47E
:10012000F4E200E00BBF02C007900D92AE39B107B8
:10013000D9F713E0AEE9B1E001C01D92AD36B107C9
:10014000E1F70E9435050C941E120C9400008F926A
:100150009F92AF92BF92CF92DF92EF92FF920F9356
:100160001F93DF93CF93CDB7DEB768970FB6F894A0
:10017000DEBF0FBECDBF80E060E071E00E949E0256
:1001800081E061E171E00E949E027E010894E11C21
:10019000F11CC7010E94F7068E01035F1F4FC801C3
:1001A0000E94F70680919F01882309F0CBC0CC24E0
:1001B0008824DD249924AA24A394BB24B3943FC0AB
:1001C0008B81813009F457C08C81813009F480C063
:1001D0008D81813009F499C08E81813009F49EC0EF
:1001E00081E0B8010E9411078D85813009F453C068
:1001F0008F85813009F463C08889813009F472C029
:100200008989813009F478C08A89813009F490C0E5
:100210008B2D682D4C2D0E9499038A2D692D4D2D13
:100220000E9499030E941E038FE891E00197F1F765
:1002300000C0000080919F01882309F083C080E006
:10024000B7010E9411078981813009F0B9CF8F81F0
:10025000882309F0B5CF8B2D813009F489C0823015
:1002600009F48CC0833009F0ABCFBB24B3948B81ED
:10027000813009F0A9CF8985882309F0A5CFCC204A
:1002800009F4AECFCA9481E0B8010E9411078D85B0
:10029000813009F0ADCF8B89882309F0A9CF9A2D41
:1002A000913009F462C0923009F465C0933009F0CE
:1002B0009FCFAA24A3948F85813009F09DCF8D898B
:1002C000882309F099CFDD2009F4A2CFDA94A0CFDA
:1002D0008A85882309F07CCF9C2D9F3008F080CF41
:1002E000C3947ECF8E89882309F08ACF8D2D8F30DD
:1002F00008F08ECFD3948CCF8F89882309F084CFD8
:10030000992009F485CF9A9483CF8B85882309F0AF
:1003100063CF882009F464CF8A9462CF8C858823C8
:1003200009F05ECF882D8F3008F05ACF839458CFD4
:10033000888D882309F06CCF992D9F3008F068CF05
:10034000939466CF68960FB6F894DEBF0FBECDBF0C
:10035000CF91DF911F910F91FF90EF90DF90CF90A1
:10036000BF90AF909F908F90089592E0A92E40CFBC
:1003700032E0B32E25CF83E0A82E3ACF23E0B22E71
:100380001FCF0E942311089508958FE59AEE0197DB
:10039000F1F700C0000083E488B94698EFE0F0E48C
:1003A0003197F1F700C0000088B94698EFE8F1E016
:1003B0003197F1F700C0000088B946988FE39CE9B7
:1003C0000197F1F700C0000081E488B94698EFE397
:1003D000FCE93197F1F700C00000089587B1807FF4
:1003E00087B990E698B986B188B18F7988B998B9FC
:1003F00086B188B18F7988B980E090E030E625E059
:100400002A95F1F70000019638B926B128B12F7965
:1004100028B938B926B128B12F7928B922E080301F
:10042000920769F787B18F6787B9089582E488B921
:10043000469888E488B946980E94EE01089590E4B1
:1004400098B94698886488B946980E94EE01089544
:1004500080E488B9469881E488B946980E94EE0104
:10046000089580E488B9469886E488B946980E9441
:10047000EE010895982F92959770986498B94698D0
:100480008F70806488B946980E94EE010895982F75
:1004900092959F70906598B946988F70806588B9DD
:1004A00046988091A4028F5F8093A4020E94EE017F
:1004B00008951F93CF93DF93EC018881882351F037
:1004C00010E00E9447021F5FFE01E10FF11D8081D5
:1004D0008823B9F7DF91CF911F910895DC012C910A
:1004E0002223B9F020E02F5FFC01E20FF11D3081E3
:1004F0003323C9F7DB019C91992369F080E0908355
:100500008F5FDB01A80FB11D9C919923C1F7108269
:100510000895FC01EFCF80E0FACF87B18F6787B9EC
:100520000E94C5010E94160284E00E941F020E94E0
:1005300028020E9431021092A40208951F93CF93C3
:10054000DF93EB018823A1F41092A4020E943A02E7
:100550008881882349F0219610E10E944702899101
:10056000882311F01150C9F7DF91CF911F910895A1
:10057000813019F08091A402E9CF80E48093A40235
:10058000E5CF2898289A08952998299A08958823CC
:1005900011F42A9808952A9A089520E030E008C0BE
:1005A0002A9A2898289A2F5F3F4F2031310589F0E9
:1005B000AC01022E02C0569547950A94E2F740FD21
:1005C000EFCF2A982898289A2F5F3F4F2031310586
:1005D00079F70895803148F420E030E802C036957C
:1005E00027958A95E2F7C901089520E030E8C9010E
:1005F0000895CF93DF93FC016031E8F42091E80285
:100600003091E902A62FB0E0ED01CC0FDD1FC20F43
:10061000D31F88819981809590959183808350968E
:10062000AA0FBB1FA20FB31F8D919C9111978095AC
:10063000909593838283DF91CF9108956091E50235
:10064000603148F080E090E89093E7028093E60202
:100650001092E50260E08AEE92E00E94F902809139
:10066000EC029091ED020E94CD028091EA029091FD
:10067000EB020E94CD028091E6029091E7020E9477
:10068000CD022998299A8091E6029091E7029695E9
:1006900087959093E7028093E6028091E5028F5F51
:1006A0008093E50208951F9310E20E941E031150EB
:1006B000E1F780E090E00E94CD0280E090E00E94AF
:1006C000CD0280E090E00E94CD0280E090E00E94A8
:1006D000CD022998299A1F91089584B1876084B921
:1006E000E5EAF2E0F093E902E093E80280E090E8C6
:1006F0009093E7028093E6021092E5021192119224
:1007000082E0E53EF807D1F70E945303089580E0A8
:1007100090E89093E7028093E6021092E502E09160
:10072000E802F091E90280E2119211928150E1F722
:100730000895CF93DF93882371F5403148F56031F8
:1007400038F5C091E802D091E902E42FF0E0DF0132
:10075000AA0FBB1FAC0FBD1F80E090E802C09695AA
:1007600087956A95E2F7809590952D913C91119728
:100770002823392311963C932E937096EE0FFF1F7A
:10078000EC0FFD1F20813181282339233183208301
:10079000DF91CF910895813079F1823009F449C019
:1007A0008330B1F74031A0F7603190F7C091E80293
:1007B000D091E902E42FF0E0DF01AA0FBB1FAC0FDC
:1007C000BD1F80E090E802C0969587956A95E2F794
:1007D0002D913C911197282B392B11963C932E93F8
:1007E0007096EE0FFF1FEC0FFD1F20813181282B2B
:1007F000392B31832083CCCF403150F6603140F625
:1008000050E0440F551FA091E802B091E902A40FF7
:10081000B51F20E030E802C0369527956A95E2F7CB
:100820008D919C911197822B932B11969C938E9373
:10083000AFCF403108F0ACCF603108F0A9CF50E025
:10084000405F5F4F440F551FE091E802F091E902CD
:10085000E40FF51F20E030E802C0369527956A9531
:10086000E2F780819181822B932B9183808390CFBB
:100870008F929F92AF92BF92CF92DF92EF92FF92B0
:100880000F931F93E82EF62E142FD22E922E961A27
:1008900097FC4EC0BB24B394A02EA11AA7FC44C061
:1008A000CC24C3948E2D6F2D412F0E949903A9143F
:1008B0001CF10117B1F0990C8A2C8194880CD12E6F
:1008C000DC0C10E0190D1A1514F0FB0C180D8E2D10
:1008D0006F2D4D2D0E949903DC0C8D2D8C1908175E
:1008E00089F71F910F91FF90EF90DF90CF90BF900D
:1008F000AF909F908F900895DF1499F3AA0C892CE4
:100900008194880CFB0C00E00A0D091514F01C0DF5
:10091000080D8E2D6F2D412F0E949903FB0C8F2DFA
:100920008B19D81689F7DDCFA194CC24CA94BACFFD
:100930009194BB24BA94B0CFCF93DF93882309F46A
:1009400046C018160CF046C0A82FBB27A7FDB095CF
:100950002091E8023091E902F90150E18081918112
:100960000A2E02C0880F991F0A94E2F7819391938F
:100970005150A1F716160CF044C0F901772767FD16
:100980007095DB01AA0FBB1FA20FB31F80E090E0A0
:100990000AC0118210820196329612962E5F3F4F46
:1009A00080319105A1F0AC01460F571F4031510530
:1009B00084F74D915C911197E90159834883019621
:1009C000329612962E5F3F4F8031910561F7DF918D
:1009D000CF910895A82FBB27A7FDB0952091E802DD
:1009E0003091E902F90140E1808191810A2E02C033
:1009F000969587950A94E2F7819391934150A1F7D8
:100A0000B9CF462F552747FD50956FE0862F90E0D0
:100A1000DC01A40FB51FB7FD15C0FC01EE0FFF1FD1
:100A2000E20FF31FAA0FBB1FA20FB31F8D919C9162
:100A3000918380836150862F90E0DC01A40FB51F65
:100A4000B7FFEBCFFC01EE0FFF1FE20FF31F118288
:100A500010826150F0CF8091E8029091E9020895F0
:100A60009093E9028093E80208950E948D020E940B
:100A70006D030E9442050E9470070E9405070E94B4
:100A80006605FDCF1092FF020895DF93CF930F927A
:100A9000CDB7DEB789830E947D078981813081F0DF
:100AA000813040F0823011F40E94C1010F90CF914B
:100AB000DF9108950E94A7000F90CF91DF910895D4
:100AC0000E94C4010F90CF91DF910895DF92EF92C1
:100AD000FF920F931F93DF93CF93CDB7DEB7689745
:100AE0000FB6F894DEBF0FBECDBF80E093E06CE898
:100AF00070E00E94171280E060E073E00E949E02A6
:100B000080E093E06DE970E00E94171281E060E000
:100B100073E00E949E020E947F078E010F5F1F4FAD
:100B2000C8010E94F7069DE0E92EF12CEC0EFD1E97
:100B3000C7010E94F70682E0D82E80919F0188238A
:100B4000E9F580E0B8010E9411078981813009F43C
:100B500055C08B81813009F45DC08C81813009F4EE
:100B6000A0C081E0B7010E9411078D85813009F492
:100B700075C08F85813009F47DC088898130E9F6A0
:100B80009E899923D1F69091FF02992309F47BC0A5
:100B9000913009F4A0C0923081F61092FF0280E0FB
:100BA00093E06DE970E00E94171281E060E073E06D
:100BB0000E949E0280919F01882319F280E093E0B9
:100BC0006CE870E00E94171280E060E073E00E9421
:100BD0009E0280E093E06DE970E00E94171281E0D0
:100BE00060E073E00E949E0210929F0180E0B801D5
:100BF0000E9411078981813009F0ABCF8F81882352
:100C000009F0A7CF8091FF020E9445058B818130BA
:100C100009F0A3CF9985992309F09FCF9091FF0206
:100C2000992309F44AC0913009F463C0923009F065
:100C300098CF1092FF0280E093E06DE970E00E948F
:100C4000171281E060E073E00E949E0281E0B7012C
:100C50000E9411078D85813009F08BCF8B89882305
:100C600009F087CF8091FF020E9445058F85813072
:100C700009F083CF9D89992309F07FCF9091FF02DE
:100C8000992309F085CF8093FF0280E093E061EB28
:100C900070E00E94171281E060E073E00E949E0203
:100CA0004CCF9A85992309F05CCF9091FF0299234C
:100CB00021F0913009F0BACFBCCF8093FF0280E0E1
:100CC00093E061EB70E00E94171281E060E073E056
:100CD0000E949E0246CFD092FF0280E093E065EC36
:100CE00070E00E94171281E060E073E00E949E02B3
:100CF00024CFD092FF0280E093E065EC70E00E9488
:100D0000171281E060E073E00E949E022ACF8AB150
:100D100080638AB91092800085E0809381000895F5
:100D2000EFE6F0E080818E7F80838BB18F7C8BB982
:100D300008958091110308950F931F93182F062F84
:100D4000843FC0F440E050E088E120E020931203AB
:100D5000809F002D11240093110350938500409330
:100D60008400B09A80916F00816080936F001F9122
:100D70000F910895282F30E040E050E064E274EFD6
:100D800080E090E00E94E1112195812F6AE00E94AD
:100D9000C211422F50E0DACF1F920F920FB60F927E
:100DA00011242F938F939F932FB78091120390E07C
:100DB00090938500809384008BB190E189278BB953
:100DC0005C990CC08091110381508093110388239A
:100DD00029F480916F008E7F80936F002FBF9F91C9
:100DE0008F912F910F900FBE0F901F901895FC01BF
:100DF0001082118212821382148215821682178247
:100E00001086118612861386089581B111B88AB1B1
:100E100083738AB982B18FEF82B98BB18C6C8BB935
:100E20000895FB01908196839181978392819087A9
:100E30009381918794819287958193878823A9F4E0
:100E4000019916C081E08083009B15C01182029B2E
:100E500016C01282039B17C01382049B18C0148211
:100E6000059919C081E0858308958130B1F0089516
:100E700010820099EBCF81E081830299EACF81E073
:100E800082830399E9CF81E083830499E8CF81E0ED
:100E90008483059BE7CF15820895069B13C01082BB
:100EA00007991BC081E081834B9B14C012824A9B2F
:100EB0000EC013824E9B08C014824F99ECCF81E084
:100EC000858308958083ECCF81E08483F6CF81E031
:100ED0008383F0CF81E08283EACF1182E5CF08954A
:100EE00024982C9AE8E6F0E0808182608083ECE62A
:100EF000F0E0808180618083089578940895ECE625
:100F0000F0E080818F7E80830895CF93DF93C3E1EB
:100F1000D3E0CE0169ED70E00E94171280E0BE01BF
:100F20000E949E02CE016AEE70E00E94171281E0DC
:100F3000BE010E949E0281E080939F01DF91CF91CC
:100F400008951F920F920FB60F920BB60F921124B5
:100F50001F932F933F934F935F936F937F938F9341
:100F60009F93AF93BF93EF93FF931FB78FE99FE0DA
:100F70000197F1F700C000000E94850778941FBF19
:100F8000FF91EF91BF91AF919F918F917F916F9161
:100F90005F914F913F912F911F910F900BBE0F903A
:100FA0000FBE0F901F901895CF92DF92EF92FF9295
:100FB0000F931F93CF93DF9380913103909132036E
:100FC0008530910509F422C1863091050CF451C099
:100FD0008830910509F49CC08336910509F48EC0D0
:100FE00086309105E9F540912F03509130036091CF
:100FF000290370912A038091A202FA01E295F295E9
:10100000F07FFE27E07FFE27E60FF71FE056FE4F3A
:1010100080830E9499036091290370912A036F30A5
:1010200071050CF0D4C740912F0350913003FA01A1
:10103000E295F295F07FFE27E07FFE27E60FF71F8F
:10104000EF55FE4F8081282F332727FD30953093B1
:10105000A3022093A20293E090836F5F0E94990302
:10106000DF91CF911F910F91FF90EF90DF90CF9084
:1010700008958230910509F48AC08430910581F782
:1010800040912F03509130036091290370912A03FE
:101090008091A202FA01E295F295F07FFE27E07FAF
:1010A000FE27E60FF71FE056FE4F80830E9499034C
:1010B0006091290370912A03161617060CF0DCC7FD
:1010C00040912F0350913003FA01E295F295F07FA1
:1010D000FE27E07FFE27E60FF71FE156FE4F8081D7
:1010E000282F332727FD30953093A3022093A202A7
:1010F00093E0908361500E949903B2CF8091A00247
:101100009091A10201969093A1028093A002A8CF92
:1011100040912F03509130036091290370912A036D
:101120008091A202FA01E295F295F07FFE27E07F1E
:10113000FE27E60FF71FE056FE4F80830E949903BB
:1011400040912F0350913003141615060CF07DC703
:10115000FA0131976091290370912A03E295F29583
:10116000F07FFE27E07FFE27E60FF71FE056FE4FD9
:101170008081282F332727FD30953093A3022093B9
:10118000A20293E0908341500E94990369CF40915D
:101190002F03509130036091290370912A038091AD
:1011A000A202FA01E295F295F07FFE27E07FFE278A
:1011B000E60FF71FE056FE4F80830E94990340918F
:1011C0002F03509130034F3051050CF028C7FA011E
:1011D00031966091290370912A03E295F295F07F90
:1011E000FE27E07FFE27E60FF71FE056FE4F8081C7
:1011F000282F332727FD30953093A3022093A20296
:1012000093E090834F5F0E9499032ACFA091290316
:10121000B0912A03BD01B0932E03A0932D03B09388
:101220003803A093370300912F03109130031093DC
:1012300036030093350310936C0300936B03809186
:10124000A2029091A302009709F00ACF0031110584
:101250000CF0A6C098012F5F3F4FF901E295F2957F
:10126000F07FFE27E07FFE27EA0FFB1FE056FE4FD0
:101270004081442309F494C08091990190919A018E
:10128000552747FD50954817590709F489C00F3075
:10129000110509F485C0C1E0D0E02FC08901109389
:1012A0006C0300936B03003111050CF075C09801BD
:1012B0002F5F3F4FF901E295F295F07FFE27E07F27
:1012C000FE278091370390913803E80FF91FE0560D
:1012D000FE4F4081442309F45FC0809199019091B1
:1012E0009A01552747FD50954817590709F454C0EE
:1012F0000F30110509F450C0BD010E5F1F4F02955C
:101300001295107F1027007F10270A0F1B1F005611
:101310001E4FF8014081552747FD509584179507CA
:1013200009F0BCCF89014091350350913603241751
:1013300035072CF42CC06091290370912A03809109
:101340009901FA01E295F295F07FFE27E07FFE27F2
:10135000E60FF71FE056FE4F80830E9499034091ED
:101360003503509136034F5F5F4F509336034093E0
:10137000350300916B0310916C030F5F1F4F04172F
:101380001507CCF66091290370912A03DB01D093F5
:101390002803C093270383CF00912F0310913003BC
:1013A000B0933803A0933703B0932E03A0932D037B
:1013B000C80110936C0300936B03109336030093E2
:1013C0003503181619060CF0A3C0980121503040BF
:1013D000F901E295F295F07FFE27E07FFE27EA0F04
:1013E000FB1FE056FE4FE081EE2309F491C04091CF
:1013F000990150919A01FF27E7FDF095E417F50751
:1014000009F486C00130110509F482C0C1E0D0E0C2
:101410002FC0019790936C0380936B0318161906E5
:101420000CF072C09C0121503040F901E295F29518
:10143000F07FFE27E07FFE2740913703509138036D
:10144000E40FF51FE056FE4FE081EE2309F45CC087
:101450004091990150919A01FF27E7FDF095E4171B
:10146000F50709F451C08130910509F44DC0BD0163
:10147000FC013297E295F295F07FFE27E07FFE2790
:10148000EA0FFB1FE056FE4FE081FF27E7FDF095D6
:101490004E175F0709F0BDCF4091350350913603D9
:1014A000421753072CF405C66091290370912A0353
:1014B00080919901FA01E295F295F07FFE27E07F95
:1014C000FE27E60FF71FE056FE4F80830E94990328
:1014D00040913503509136034150504050933603AC
:1014E0004093350380916B0390916C0301974817EB
:1014F0005907D4F66091290370912A03DB01D09338
:101500002803C093270386CF00912F031091300347
:10151000B0933803A0933703B0932E03A0932D0309
:10152000F80110936C0300936B0310933603009340
:101530003503A031B1050CF0C5C5A80142955295FF
:10154000507F5427407F5427EA01C056DE4FCA0F10
:10155000DB1F8981882309F49DC0E0909901F090F8
:101560009A01992787FD90958E159F0509F492C0E1
:10157000AF30B10509F4BFC59D01CD01CC24DD24F8
:10158000C39435C0CB010196909338038093370301
:10159000803191050CF07FC0C0916B03D0916C033A
:1015A000C295D295D07FDC27C07FDC27C056DE4FA6
:1015B000C80FD91F4981442309F46DC0E0909901F7
:1015C000F0909A01552747FD50954E155F0509F497
:1015D00062C08F30910509F45EC0F8019D01BC0125
:1015E000A80142955295507F5427407F5427EA0125
:1015F000C056DE4FC80FD91F8A81992787FD909565
:10160000E816F90609F0BECFCB01019660912D03D3
:1016100070912E03861797077CF437C040912F03F3
:10162000509130032091290330912A03429552951D
:10163000507F5427407F542780919901460F571FB0
:1016400040565E4FDA018C93622F409135030E9421
:10165000990360912D0370912E036F5F7F4F7093FC
:101660002E0360932D0380913703909138030196E8
:10167000861797079CF62091290330912A03D901F8
:1016800000912F0310913003F801D0922803C092EB
:1016900027037ACF9D01B0933803A0933703B0930B
:1016A0002E03A0932D0310936C0300936B031093F0
:1016B0003603009335031A161B060CF0A6C0A801CA
:1016C00042955295507F5427407F5427E901C40F1B
:1016D000D51FC156DE4F6881662309F496C08091FC
:1016E000990190919A01772767FD7095681779079E
:1016F00009F48BC02130310509F487C0B901C1E07C
:10170000D0E035C021503040B901309338032093E8
:101710003703121613060CF074C0A0916B03B0913E
:101720006C03A295B295B07FBA27A07FBA27A60F07
:10173000B71FA156BE4F2C91222309F462C080919D
:10174000990190919A01332727FD30952817390781
:1017500009F457C06130710509F453C0F8019B01C9
:10176000A80142955295507F5427407F5427640F1B
:10177000751F62567E4FDB016C91772767FD709570
:101780008617970709F0BECF60912D0370912E0345
:1017900021503040621773075CF42EC040912F0334
:1017A0005091300342955295507F5427407F5427E3
:1017B00080919901460F571F40565E4FFA01808372
:1017C000409135030E94990360912D0370912E037F
:1017D0006150704070932E0360932D032091370366
:1017E000309138032150304062177307BCF60091E6
:1017F0002F0310913003F801D0932803C0932703DF
:1018000083CFA0912903B0912A03CD01B09338036F
:10181000A0933703B0932E03A0932D0310936C0372
:1018200000936B031093360300933503A031B10589
:101830000CF0CFC0003111050CF0CBC098012F5F28
:101840003F4FE901C295D295D07FDC27C07FDC27CE
:10185000C056DE4FCA0FDB1F6981662309F4B9C089
:101860004091990150919A01772767FD709564170F
:10187000750709F4AEC00F30110509F4AAC0AF30E6
:10188000B10509F4A6C0C1E0D0E039C00196F90164
:101890009093380380933703F0936C03E0936B03CA
:1018A000803191050CF08DC0E031F1050CF089C05C
:1018B0009F012F5F3F4FD901A295B295B07FBA2704
:1018C000A07FBA27A056BE4FA80FB91F11966C91E2
:1018D0001197662309F475C04091990150919A01BE
:1018E000772767FD70956417750709F46AC0EF30B4
:1018F000F10509F466C08F30910509F462C0E295E4
:10190000F295F07FFE27E07FFE27E054FE4FE80FC0
:10191000F91F6281772767FD70954617570709F011
:10192000B5CF019660912D0370912E03861797070E
:101930000CF4C4C3F90140913503509136032417C8
:1019400035074CF439C0E0916B03F0916C0331968C
:10195000E417F5078CF180919901FA01E295F2956F
:10196000F07FFE27E07FFE27E60FF71FE056FE4FD1
:1019700080830E94990360912D0370912E036F5F05
:101980007F4F70932E0360932D0340913503509148
:1019900036034F5F5F4F509336034093350380917A
:1019A00037039091380301968617970764F6E09104
:1019B0006B03F0916C033196D0932803C0932703F7
:1019C00067CF00912F0310913003A0912903B091AC
:1019D0002A03AD01B0933803A0933703B0932E03CD
:1019E000A0932D0310936C0300936B0310933603A5
:1019F000009335031A161B060CF0D4C010161106FE
:101A00000CF0D0C0C8010197FC01E295F295F07F7F
:101A1000FE27E07FFE27EA0FFB1FE156FE4F2081E5
:101A2000222309F4BFC06091990170919A01332774
:101A300027FD30952617370709F4B4C0013011058A
:101A400009F4B0C0A130B10509F4ACC0F8019D01A2
:101A500001E010E03BC09A01215030403093380340
:101A600020933703FC0190936C0380936B03121651
:101A700013060CF08FC0181619060CF08BC0DC0191
:101A80001197AD0142955295507F5427407F5427BE
:101A9000420F531F41565E4FEA014881442309F427
:101AA00079C06091990170919A01552747FD509531
:101AB0004617570709F46EC08130910509F46AC0D2
:101AC0002130310509F466C0A901CD01E295F295F6
:101AD000F07FFE27E07FFE27E20FF31FE258FE4F64
:101AE0002081332727FD30956217730709F0B3CFA4
:101AF00060912D0370912E039A012150304062179E
:101B000073070CF442C040913503509136034817D7
:101B100059074CF43AC080916B0390916C03019784
:101B20004817590794F180919901FA01E295F295CD
:101B3000F07FFE27E07FFE27E60FF71FE056FE4FFF
:101B400080830E94990360912D0370912E03615050
:101B5000704070932E0360932D0340913503509194
:101B60003603415050405093360340933503209143
:101B700037033091380321503040621773075CF609
:101B800080916B0390916C0301971093280300934D
:101B9000270364CF00912F0310913003A0912903F4
:101BA000B0912A039D01B0933803A0933703B093FB
:101BB0002E03A0932D03C80110936C0300936B03B5
:101BC00010933603009335031A161B060CF0D1C090
:101BD000003111050CF0CDC0A8014F5F5F4FFA0135
:101BE000E295F295F07FFE27E07FFE27EA0FFB1FCC
:101BF000E156FE4FE081EE2309F4BBC060919901EC
:101C000070919A01FF27E7FDF095E617F70709F4B1
:101C1000B0C00F30110509F4ACC0A130B10509F412
:101C2000A8C0C1E0D0E039C0CA01F90131979F01D5
:101C3000F0933803E093370390936C0380936B0326
:101C40001E161F060CF08DC0803191050CF089C066
:101C5000AC014F5F5F4FDA01A295B295B07FBA2712
:101C6000A07FBA27AE0FBF1FA156BE4FAC91AA23CB
:101C700009F477C06091990170919A01BB27A7FD83
:101C8000B095A617B70709F46CC08F30910509F419
:101C900068C0E130F10509F464C0FC01E295F295F9
:101CA000F07FFE27E07FFE27E20FF31FE254FE4F96
:101CB0008081992787FD90956817790709F0B4CF3F
:101CC00060912D0370912E032150304062177307ED
:101CD0000CF4F1C1CA0140913503509136038417C9
:101CE00095074CF4EDC180916B0390916C030196C4
:101CF000841795078CF180919901FA01E295F2958C
:101D0000F07FFE27E07FFE27E60FF71FE056FE4F2D
:101D100080830E94990360912D0370912E0361507E
:101D2000704070932E0360932D03409135035091C2
:101D300036034F5F5F4F5093360340933503E09176
:101D40003703F091380331976E177F0764F680915F
:101D50006B0390916C030196D0932803C0932703E3
:101D600066CF00912F0310913003A0912903B09109
:101D70002A03B0933803A0933703B0932E03A093A4
:101D80002D0310936C0300936B03109336030093A1
:101D90003503A031B1050CF0C6C0101611060CF0C9
:101DA000C2C0C8010197FC01E295F295F07FFE27C1
:101DB000E07FFE27E056FE4FEA0FFB1F41814423E0
:101DC00009F4B1C02091990130919A01552747FD3E
:101DD00050954217530709F4A6C00130110509F4C4
:101DE000A2C0AF30B10509F49EC0C1E0D0E037C059
:101DF000119601501040B0933803A093370310930D
:101E00006C0300936B03A031B1050CF08CC010166D
:101E100011060CF088C0C8010197FC01E295F2950B
:101E2000F07FFE27E07FFE27E056FE4FEA0FFB1F04
:101E30004181442309F477C02091990130919A019E
:101E4000552747FD50954217530709F46CC00130E0
:101E5000110509F468C0AF30B10509F464C0F80198
:101E6000E295F295F07FFE27E07FFE27E058FE4FD7
:101E7000EA0FFB1F4281552747FD50952417350770
:101E800009F0B6CF119660912D0370912E03A6171D
:101E9000B7070CF441C04091350350913603481701
:101EA000590754F439C000916B0310916C03015031
:101EB00010404017510794F180919901FA01E29581
:101EC000F295F07FFE27E07FFE27E60FF71FE05632
:101ED000FE4F80830E94990360912D0370912E0321
:101EE0006F5F7F4F70932E0360932D0340913503F6
:101EF0005091360341505040509336034093350380
:101F0000A0913703B09138031196A617B7075CF676
:101F100000916B0310916C0301501040D093280383
:101F2000C093270368CF80912703909128038130C5
:101F3000910509F095C88091A0029091A1020196A7
:101F40009093A1028093A00280919B0190919C01AB
:101F5000019690939C0180939B0140912F03509197
:101F600030036091290370912A0380919901FA014D
:101F7000E295F295F07FFE27E07FFE27E60FF71F40
:101F8000E056FE4F80830E94990340912F035091A9
:101F900030036091290370912A03FA01E295F295CA
:101FA000F07FFE27E07FFE27E60FF71FE056FE4F8B
:101FB0008081992787FD90959093A3028093A20238
:101FC00083E08083809199010E94990349C84091E0
:101FD0002F0350913003FA013197E295F295F07F8B
:101FE000FE27E07FFE27E60FF71FE056FE4F8081B9
:101FF000282F332727FD30953093A3022093A20288
:10200000FA01E295F295F07FFE27E07FFE27E05689
:10201000FE4F93E0908360E00E94990321C8609195
:10202000290370912A03FB01E056FE4F8081282F7F
:10203000332727FD30953093A3022093A20293E02B
:10204000908340E00E9499030BC86091290370912E
:102050002A03FB01E057FD4F8081282F332727FDFE
:1020600030953093A3022093A20293E090834FE037
:102070000E9499030C94300840912F035091300333
:10208000FA01E295F295F07FFE27E07FFE27E05609
:10209000FE4F8785282F332727FD30953093A302E5
:1020A0002093A20293E097876FE00E9499030C941B
:1020B0003008019724CACA01F9014ECEF9017CCC3F
:1020C000F9014ACE9D01A80142955295507F5427AF
:1020D000407F5427309338032093370330932E03E7
:1020E00020932D0310936C0300936B03109336031E
:1020F00000933503EBCA2FE030E0ECCFCF93DF93B2
:10210000EC010E941E0381E0BE010E9411078A813A
:10211000813041F18B818130D9F18C81813009F49A
:102120004DC08D81813009F460C08881813009F40F
:1021300073C08981813029F78F81882311F783E665
:1021400090E0909332038093310381E067E771E080
:102150000E949E0280E068E871E00E949E02DF918A
:10216000CF91089588858823A9F688E090E0909320
:1021700032038093310381E062E271E00E949E02AB
:1021800080E068E871E00E949E02DF91CF9108959F
:102190008985882311F682E090E090933203809342
:1021A000310381E063E371E00E949E0280E068E811
:1021B00071E00E949E02DF91CF9108958A85882365
:1021C00009F0AFCF84E090E0909332038093310325
:1021D00081E064E471E00E949E0280E068E871E0C2
:1021E0000E949E02DF91CF9108958B85882309F08C
:1021F0009CCF86E090E0909332038093310381E09E
:1022000065E571E00E949E0280E068E871E00E944E
:102210009E02DF91CF9108958E81882309F089CFA6
:1022200085E090E0909332038093310381E066E68D
:1022300071E00E949E0280E068E871E00E949E02C8
:10224000DF91CF910895CF92DF92EF92FF920F939B
:102250001F93DF93CF93CDB7DEB72C970FB6F894CB
:10226000DEBF0FBECDBF81E08093170280932802AE
:1022700067E047E00E94990381E068E048E00E943F
:10228000990382E0809318028093270267E048E078
:102290000E94990382E068E047E00E94990383E08E
:1022A0008093A00160E040E00E9499037E010894C1
:1022B000E11CF11CC7010E94F70632E0C32ED12CAD
:1022C00010923203109231031092280310922703C8
:1022D000C7010E947E10A0EAB1E000E010E060E0DB
:1022E00070E08C918330E1F182E090E0E1E0F0E099
:1022F000AB0142955295507F5427407F542705C02B
:10230000FC0101968131910509F19C012150304079
:10231000E40FF51FE056FE4FE081E33089F710939C
:10232000300300932F0330932A03209329030E9444
:10233000D4078091A0029091A102B6010E94CE1113
:10234000019690939A0180939901BACF6F5F7F4F66
:1023500050966031710569F08B018C91833021F6C4
:102360001093300300932F0310922A031092290335
:10237000DECF7093300360932F03F0932A03E09332
:102380002903D7CF991B79E004C0991F961708F04D
:10239000961B881F7A95C9F78095089597FB092E9B
:1023A00007260AD077FD04D02ED006D000201AF4DC
:1023B000709561957F4F0895F6F7909581959F4FA1
:1023C0000895A1E21A2EAA1BBB1BFD010DC0AA1F76
:1023D000BB1FEE1FFF1FA217B307E407F50720F08E
:1023E000A21BB30BE40BF50B661F771F881F991F09
:1023F0001A9469F760957095809590959B01AC0152
:10240000BD01CF010895AA1BBB1B51E107C0AA1F44
:10241000BB1FA617B70710F0A61BB70B881F991F85
:102420005A95A9F780959095BC01CD010895FB01BF
:10243000DC0105900D920020E1F70895F894FFCF9C
:1024400052756E6E696E672044656D6F2E2E2E205C
:10245000002020202020202020202020202020209C
:1024600020007565202020202020202020202020F2
:10247000202000736974612020202020202020204B
:1024800020202000686964617269202020202020BB
:1024900020202020006D6967692020202020202036
:1024A0002020202020007075742020202020202053
:1024B00020202020202000736B6970202020202005
:1024C0002020202020202000726561645F627574E6
:0E24D000746F6E5F6F757420000100010000D4
:00000001FF
