:100000000C9486000C94A5000C94A5000C94A500FB
:100010000C94A5000C94A1070C94A5000C94A500C9
:100020000C94A5000C94A5000C94A5000C94A500BC
:100030000C94A5000C94A5000C94A5000C94CC067F
:100040000C94A5000C94A5000C94A5000C94A5009C
:100050000C94A5000C94A5000C94A5000C94A5008C
:100060000C94A5000C94A5000C94A5000C94A5007C
:100070000C94A5000C94A5000C94A5000C94A5006C
:100080000C94A5000C94A5000C94A5004C6574720A
:100090006F3A2053656C6563744170700030312095
:1000A0003A2044656D6F2020202020202000000091
:1000B000003032203A20536F756E6420546573749B
:1000C00020000000003033203A204F746865726FC2
:1000D000202020202000000000536F6674526573BA
:1000E00065744D656E7520200000457869743F2069
:1000F0002A4F4B20204E4F20202000457869743F26
:1001000020204F4B202A4E4F2020200011241FBEBC
:10011000CFEFD0E4DEBFCDBF11E0A0E0B1E0E2E977
:10012000F5E200E00BBF02C007900D92AE3AB107B6
:10013000D9F713E0AEEAB1E001C01D92AC35B107CA
:10014000E1F70E9435050C94C7120C9400008F92C1
:100150009F92AF92BF92CF92DF92EF92FF920F9356
:100160001F93DF93CF93CDB7DEB768970FB6F894A0
:10017000DEBF0FBECDBF80E060E071E00E949E0256
:1001800081E061E171E00E949E027E010894E11C21
:10019000F11CC7010E94F7068E01035F1F4FC801C3
:1001A0000E94F7068091AF01882309F0CBC0CC24D0
:1001B0008824DD249924AA24A394BB24B3943FC0AB
:1001C0008B81813009F457C08C81813009F480C063
:1001D0008D81813009F499C08E81813009F49EC0EF
:1001E00081E0B8010E9411078D85813009F453C068
:1001F0008F85813009F463C08889813009F472C029
:100200008989813009F478C08A89813009F490C0E5
:100210008B2D682D4C2D0E9499038A2D692D4D2D13
:100220000E9499030E941E038FE891E00197F1F765
:1002300000C000008091AF01882309F083C080E0F6
:10024000B7010E9411078981813009F0B9CF8F81F0
:10025000882309F0B5CF8B2D813009F489C0823015
:1002600009F48CC0833009F0ABCFBB24B3948B81ED
:10027000813009F0A9CF8985882309F0A5CFCC204A
:1002800009F4AECFCA9481E0B8010E9411078D85B0
:10029000813009F0ADCF8B89882309F0A9CF9A2D41
:1002A000913009F462C0923009F465C0933009F0CE
:1002B0009FCFAA24A3948F85813009F09DCF8D898B
:1002C000882309F099CFDD2009F4A2CFDA94A0CFDA
:1002D0008A85882309F07CCF9C2D9F3008F080CF41
:1002E000C3947ECF8E89882309F08ACF8D2D8F30DD
:1002F00008F08ECFD3948CCF8F89882309F084CFD8
:10030000992009F485CF9A9483CF8B85882309F0AF
:1003100063CF882009F464CF8A9462CF8C858823C8
:1003200009F05ECF882D8F3008F05ACF839458CFD4
:10033000888D882309F06CCF992D9F3008F068CF05
:10034000939466CF68960FB6F894DEBF0FBECDBF0C
:10035000CF91DF911F910F91FF90EF90DF90CF90A1
:10036000BF90AF909F908F90089592E0A92E40CFBC
:1003700032E0B32E25CF83E0A82E3ACF23E0B22E71
:100380001FCF0E943B11089508958FE59AEE0197C3
:10039000F1F700C0000083E488B94698EFE0F0E48C
:1003A0003197F1F700C0000088B94698EFE8F1E016
:1003B0003197F1F700C0000088B946988FE39CE9B7
:1003C0000197F1F700C0000081E488B94698EFE397
:1003D000FCE93197F1F700C00000089587B1807FF4
:1003E00087B990E698B986B188B18F7988B998B9FC
:1003F00086B188B18F7988B980E090E030E625E059
:100400002A95F1F70000019638B926B128B12F7965
:1004100028B938B926B128B12F7928B922E080301F
:10042000920769F787B18F6787B9089582E488B921
:10043000469888E488B946980E94EE01089590E4B1
:1004400098B94698886488B946980E94EE01089544
:1004500080E488B9469881E488B946980E94EE0104
:10046000089580E488B9469886E488B946980E9441
:10047000EE010895982F92959770986498B94698D0
:100480008F70806488B946980E94EE010895982F75
:1004900092959F70906598B946988F70806588B9DD
:1004A00046988091B4028F5F8093B4020E94EE015F
:1004B00008951F93CF93DF93EC018881882351F037
:1004C00010E00E9447021F5FFE01E10FF11D8081D5
:1004D0008823B9F7DF91CF911F910895DC012C910A
:1004E0002223B9F020E02F5FFC01E20FF11D3081E3
:1004F0003323C9F7DB019C91992369F080E0908355
:100500008F5FDB01A80FB11D9C919923C1F7108269
:100510000895FC01EFCF80E0FACF87B18F6787B9EC
:100520000E94C5010E94160284E00E941F020E94E0
:1005300028020E9431021092B40208951F93CF93B3
:10054000DF93EB018823A1F41092B4020E943A02D7
:100550008881882349F0219610E10E944702899101
:10056000882311F01150C9F7DF91CF911F910895A1
:10057000813019F08091B402E9CF80E48093B40215
:10058000E5CF2898289A08952998299A08958823CC
:1005900011F42A9808952A9A089520E030E008C0BE
:1005A0002A9A2898289A2F5F3F4F2031310589F0E9
:1005B000AC01022E02C0569547950A94E2F740FD21
:1005C000EFCF2A982898289A2F5F3F4F2031310586
:1005D00079F70895803148F420E030E802C036957C
:1005E00027958A95E2F7C901089520E030E8C9010E
:1005F0000895CF93DF93FC016031E8F42091F80275
:100600003091F902A62FB0E0ED01CC0FDD1FC20F33
:10061000D31F88819981809590959183808350968E
:10062000AA0FBB1FA20FB31F8D919C9111978095AC
:10063000909593838283DF91CF9108956091F50225
:10064000603148F080E090E89093F7028093F602E2
:100650001092F50260E08AEF92E00E94F902809128
:10066000FC029091FD020E94CD028091FA029091CD
:10067000FB020E94CD028091F6029091F7020E9447
:10068000CD022998299A8091F6029091F7029695C9
:1006900087959093F7028093F6028091F5028F5F21
:1006A0008093F50208951F9310E20E941E031150DB
:1006B000E1F780E090E00E94CD0280E090E00E94AF
:1006C000CD0280E090E00E94CD0280E090E00E94A8
:1006D000CD022998299A1F91089584B1876084B921
:1006E000E5EBF2E0F093F902E093F80280E090E8A5
:1006F0009093F7028093F6021092F50211921192F4
:1007000082E0E53FF807D1F70E945303089580E0A7
:1007100090E89093F7028093F6021092F502E09130
:10072000F802F091F90280E2119211928150E1F702
:100730000895CF93DF93882371F5403148F56031F8
:1007400038F5C091F802D091F902E42FF0E0DF0112
:10075000AA0FBB1FAC0FBD1F80E090E802C09695AA
:1007600087956A95E2F7809590952D913C91119728
:100770002823392311963C932E937096EE0FFF1F7A
:10078000EC0FFD1F20813181282339233183208301
:10079000DF91CF910895813079F1823009F449C019
:1007A0008330B1F74031A0F7603190F7C091F80283
:1007B000D091F902E42FF0E0DF01AA0FBB1FAC0FCC
:1007C000BD1F80E090E802C0969587956A95E2F794
:1007D0002D913C911197282B392B11963C932E93F8
:1007E0007096EE0FFF1FEC0FFD1F20813181282B2B
:1007F000392B31832083CCCF403150F6603140F625
:1008000050E0440F551FA091F802B091F902A40FD7
:10081000B51F20E030E802C0369527956A95E2F7CB
:100820008D919C911197822B932B11969C938E9373
:10083000AFCF403108F0ACCF603108F0A9CF50E025
:10084000405F5F4F440F551FE091F802F091F902AD
:10085000E40FF51F20E030E802C0369527956A9531
:10086000E2F780819181822B932B9183808390CFBB
:100870008F929F92AF92BF92CF92DF92EF92FF92B0
:100880000F931F93E82EF62E142FD22E922E961A27
:1008900097FC4EC0BB24B394A02EA11AA7FC44C061
:1008A000CC24C3948E2D6F2D412F0E949903A9143F
:1008B0001CF10117B1F0990C8A2C8194880CD12E6F
:1008C000DC0C10E0190D1A1514F0FB0C180D8E2D10
:1008D0006F2D4D2D0E949903DC0C8D2D8C1908175E
:1008E00089F71F910F91FF90EF90DF90CF90BF900D
:1008F000AF909F908F900895DF1499F3AA0C892CE4
:100900008194880CFB0C00E00A0D091514F01C0DF5
:10091000080D8E2D6F2D412F0E949903FB0C8F2DFA
:100920008B19D81689F7DDCFA194CC24CA94BACFFD
:100930009194BB24BA94B0CFCF93DF93882309F46A
:1009400046C018160CF046C0A82FBB27A7FDB095CF
:100950002091F8023091F902F90150E180819181F2
:100960000A2E02C0880F991F0A94E2F7819391938F
:100970005150A1F716160CF044C0F901772767FD16
:100980007095DB01AA0FBB1FA20FB31F80E090E0A0
:100990000AC0118210820196329612962E5F3F4F46
:1009A00080319105A1F0AC01460F571F4031510530
:1009B00084F74D915C911197E90159834883019621
:1009C000329612962E5F3F4F8031910561F7DF918D
:1009D000CF910895A82FBB27A7FDB0952091F802CD
:1009E0003091F902F90140E1808191810A2E02C023
:1009F000969587950A94E2F7819391934150A1F7D8
:100A0000B9CF462F552747FD50956FE0862F90E0D0
:100A1000DC01A40FB51FB7FD15C0FC01EE0FFF1FD1
:100A2000E20FF31FAA0FBB1FA20FB31F8D919C9162
:100A3000918380836150862F90E0DC01A40FB51F65
:100A4000B7FFEBCFFC01EE0FFF1FE20FF31F118288
:100A500010826150F0CF8091F8029091F9020895D0
:100A60009093F9028093F80208950E948D020E94EB
:100A70006D030E9442050E9470070E9405070E94B4
:100A80006605FDCF10920F030895DF93CF930F9269
:100A9000CDB7DEB789830E947D078981813081F0DF
:100AA000813040F0823011F40E94C1010F90CF914B
:100AB000DF9108950E94A7000F90CF91DF910895D4
:100AC0000E94C4010F90CF91DF910895DF92EF92C1
:100AD000FF920F931F93DF93CF93CDB7DEB7689745
:100AE0000FB6F894DEBF0FBECDBF80E193E06CE897
:100AF00070E00E94C01280E060E173E00E949E02FC
:100B000080E193E06DE970E00E94C01281E060E155
:100B100073E00E949E020E947F078E010F5F1F4FAD
:100B2000C8010E94F7069DE0E92EF12CEC0EFD1E97
:100B3000C7010E94F70682E0D82E8091AF0188237A
:100B4000E9F580E0B8010E9411078981813009F43C
:100B500055C08B81813009F45DC08C81813009F4EE
:100B6000A0C081E0B7010E9411078D85813009F492
:100B700075C08F85813009F47DC088898130E9F6A0
:100B80009E899923D1F690910F03992309F47BC094
:100B9000913009F4A0C0923081F610920F0380E1E9
:100BA00093E06DE970E00E94C01281E060E173E0C3
:100BB0000E949E028091AF01882319F280E193E0A8
:100BC0006CE870E00E94C01280E060E173E00E9477
:100BD0009E0280E193E06DE970E00E94C01281E026
:100BE00060E173E00E949E021092AF0180E0B801C4
:100BF0000E9411078981813009F0ABCF8F81882352
:100C000009F0A7CF80910F030E9445058B818130A9
:100C100009F0A3CF9985992309F09FCF90910F03F5
:100C2000992309F44AC0913009F463C0923009F065
:100C300098CF10920F0380E193E06DE970E00E947D
:100C4000C01281E060E173E00E949E0281E0B70182
:100C50000E9411078D85813009F08BCF8B89882305
:100C600009F087CF80910F030E9445058F85813061
:100C700009F083CF9D89992309F07FCF90910F03CD
:100C8000992309F085CF80930F0380E193E061EB16
:100C900070E00E94C01281E060E173E00E949E0259
:100CA0004CCF9A85992309F05CCF90910F0399233B
:100CB00021F0913009F0BACFBCCF80930F0380E1CF
:100CC00093E061EB70E00E94C01281E060E173E0AC
:100CD0000E949E0246CFD0920F0380E193E065EC24
:100CE00070E00E94C01281E060E173E00E949E0209
:100CF00024CFD0920F0380E193E065EC70E00E9476
:100D0000C01281E060E173E00E949E022ACF8AB1A6
:100D100080638AB91092800085E0809381000895F5
:100D2000EFE6F0E080818E7F80838BB18F7C8BB982
:100D300008958091210308950F931F93182F062F74
:100D4000843FC0F440E050E088E120E0209322039B
:100D5000809F002D11240093210350938500409320
:100D60008400B09A80916F00816080936F001F9122
:100D70000F910895282F30E040E050E064E274EFD6
:100D800080E090E00E948A122195812F6AE00E9403
:100D90006B12422F50E0DACF1F920F920FB60F92D4
:100DA00011242F938F939F932FB78091220390E06C
:100DB00090938500809384008BB190E189278BB953
:100DC0005C990CC08091210381508093210388237A
:100DD00029F480916F008E7F80936F002FBF9F91C9
:100DE0008F912F910F900FBE0F901F901895FC01BF
:100DF0001082118212821382148215821682178247
:100E00001086118612861386089581B111B88AB1B1
:100E100083738AB982B18FEF82B98BB18C6C8BB935
:100E20000895FB01908196839181978392819087A9
:100E30009381918794819287958193878823A9F4E0
:100E4000019916C081E08083009B15C01182029B2E
:100E500016C01282039B17C01382049B18C0148211
:100E6000059919C081E0858308958130B1F0089516
:100E700010820099EBCF81E081830299EACF81E073
:100E800082830399E9CF81E083830499E8CF81E0ED
:100E90008483059BE7CF15820895069B13C01082BB
:100EA00007991BC081E081834B9B14C012824A9B2F
:100EB0000EC013824E9B08C014824F99ECCF81E084
:100EC000858308958083ECCF81E08483F6CF81E031
:100ED0008383F0CF81E08283EACF1182E5CF08954A
:100EE00024982C9AE8E6F0E0808182608083ECE62A
:100EF000F0E0808180618083089578940895ECE625
:100F0000F0E080818F7E80830895CF93DF93C3E2EA
:100F1000D3E0CE0169ED70E00E94C01280E0BE0116
:100F20000E949E02CE016AEE70E00E94C01281E033
:100F3000BE010E949E0281E08093AF01DF91CF91BC
:100F400008951F920F920FB60F920BB60F921124B5
:100F50001F932F933F934F935F936F937F938F9341
:100F60009F93AF93BF93EF93FF931FB78FE99FE0DA
:100F70000197F1F700C000000E94850778941FBF19
:100F8000FF91EF91BF91AF919F918F917F916F9161
:100F90005F914F913F912F911F910F900BBE0F903A
:100FA0000FBE0F901F90189580E062E271E00E94E2
:100FB0009E0281E0809327028093380267E047E039
:100FC0000E94990381E068E048E00E94990382E072
:100FD000809328028093370267E048E00E949903DB
:100FE00082E068E047E00E94990383E08093B001CB
:100FF00060E040E00E9499031092B3021092B202A6
:10100000089520E030E0F901E295F295F07FFE27A7
:10101000E07FFE27E055FE4F80E090E011920196C0
:1010200080319105D9F72F5F3F4F2031310559F7B6
:10103000089540913F0350914003609139037091AE
:101040003A03FA01E295F295F07FFE27E07FFE2752
:10105000E60FF71FE055FE4F8091B202808380E0DB
:101060000E9499038091B2026091390340913F033D
:101070000E9499036091390370913A036F307105B2
:10108000FCF010923A031092390340913F035091C3
:101090004003FA01E295F295F07FFE27E07FFE27FC
:1010A000E055FE4F8081992787FD90959093B3027C
:1010B0008093B20283E0808360E00E9499030895E8
:1010C0006F5F7F4F70933A036093390340913F0302
:1010D00050914003FA01E295F295F07FFE27E07F00
:1010E000FE27E60FF71FE055FE4F8081992787FD09
:1010F00090959093B3028093B20283E080830E9424
:101100009903089540913F03509140036091390342
:1011100070913A03FA01E295F295F07FFE27E07FA5
:10112000FE27E60FF71FE055FE4F8091B202808345
:1011300080E00E9499038091B2026091390340914E
:101140003F030E9499036091390370913A03161688
:10115000170614F56150704070933A036093390399
:1011600040913F0350914003FA01E295F295F07FE0
:10117000FE27E07FFE27E60FF71FE055FE4F808138
:10118000992787FD90959093B3028093B20283E0F4
:1011900080830E94990308958FE090E090933A0332
:1011A0008093390340913F0350914003FA01E29547
:1011B000F295F07FFE27E07FFE27E055FE4F878502
:1011C000992787FD90959093B3028093B20283E0B4
:1011D00087876FE00E949903089540913F035091E3
:1011E00040036091390370913A03FA01E295F29558
:1011F000F07FFE27E07FFE27E60FF71FE055FE4F4A
:101200008091B202808380E00E9499038091B202B3
:101210006091390340913F030E94990340913F033D
:10122000509140031416150614F541505040509348
:10123000400340933F036091390370913A03FA01F0
:10124000E295F295F07FFE27E07FFE27E60FF71F7D
:10125000E055FE4F8081992787FD90959093B302CA
:101260008093B20283E080830E94990308958FE007
:1012700090E09093400380933F0360913903709115
:101280003A03FB01E056FD4F8081992787FD909539
:101290009093B3028093B20283E080834FE00E9478
:1012A0009903089540913F035091400360913903A1
:1012B00070913A03FA01E295F295F07FFE27E07F04
:1012C000FE27E60FF71FE055FE4F8091B2028083A4
:1012D00080E00E9499038091B202609139034091AD
:1012E0003F030E94990340913F03509140034F30C8
:1012F0005105CCF01092400310923F0360913903E6
:1013000070913A03FB01E055FE4F8081992787FDDC
:1013100090959093B3028093B20283E0808340E083
:101320000E94990308954F5F5F4F5093400340938D
:101330003F036091390370913A03FA01E295F29507
:10134000F07FFE27E07FFE27E60FF71FE055FE4FF8
:101350008081992787FD90959093B3028093B20284
:1013600083E080830E94990308950F931F93CF9386
:10137000DF932091390330913A03B90130933E0352
:1013800020933D033093480320934703E0913F03AC
:10139000F0914003F0934603E0934503F0935B0321
:1013A000E0935A038091B2029091B302009709F042
:1013B0006BC4E031F1050CF0B3C0AF014F5F5F4F7C
:1013C000DA01A295B295B07FBA27A07FBA27A20F03
:1013D000B31FA055BE4FAC91AA2309F4A1C08091C0
:1013E000AA019091AB01BB27A7FDB095A817B9073B
:1013F00009F496C0EF30F10509F492C0C1E0D0E0E5
:101400002FC0FA01F0935B03E0935A03E031F1053A
:101410000CF082C0AF014F5F5F4FDA01A295B29529
:10142000B07FBA27A07FBA278091470390914803E5
:10143000A80FB91FA055BE4FAC91AA2309F46CC0E8
:101440008091AA019091AB01BB27A7FDB095A81789
:10145000B90709F461C0EF30F10509F45DC0B901C5
:101460003296E295F295F07FFE27E07FFE27E20FAD
:10147000F31FE055FE4FE081FF27E7FDF0958E1743
:101480009F0709F0BECFFA014091450350914603F2
:10149000E417F5072CF434C06091390370913A03D6
:1014A000FA01E295F295F07FFE27E07FFE27E60F36
:1014B000F71FE055FE4F8091AA01808380E00E94D3
:1014C00099038091AA0160913903409145030E94DC
:1014D000990340914503509146034F5F5F4F5093EE
:1014E000460340934503E0915A03F0915B03319624
:1014F000E417F5078CF66091390370913A039B016C
:10150000D0933803C0933703F0935B03E0935A03FF
:10151000E031F1050CF47ECFE0913F03F091400300
:10152000309348032093470330933E0320933D03B9
:10153000F0935B03E0935A03F0934603E093450373
:101540001E161F060CF0B3C0CF010197DC01A29557
:10155000B295B07FBA27A07FBA27A20FB31FA055BC
:10156000BE4FAC91AA2309F4A2C04091AA015091A8
:10157000AB01BB27A7FDB095A417B50709F497C029
:10158000E130F10509F493C0EF0101E010E02FC054
:10159000EC0190935B0380935A03181619060CF024
:1015A00082C0DC011197FD01E295F295F07FFE27E4
:1015B000E07FFE274091470350914803E40FF51F59
:1015C000E055FE4FE081EE2309F46DC04091AA0181
:1015D0005091AB01FF27E7FDF095E417F50709F4FB
:1015E00062C08130910509F45EC0B901CD01229736
:1015F000C295D295D07FDC27C07FDC27C20FD31FD6
:10160000C055DE4FE881FF27E7FDF0954E175F07D5
:1016100009F0BECF40914503509146034817590742
:101620002CF434C06091390370913A03FA01E295C9
:10163000F295F07FFE27E07FFE27E60FF71FE055CB
:10164000FE4F8091AA01808380E00E9499038091DF
:10165000AA0160913903409145030E94990340918A
:1016600045035091460341505040509346034093E8
:10167000450380915A0390915B03019748175907DE
:101680008CF66091390370913A039B0110933803F3
:1016900000933703EC0190935B0380935A03181671
:1016A00019060CF47ECFE0913F03F0914003309394
:1016B00048032093470330933E0320933D03AF013B
:1016C000F0935B03E0935A03F0934603E0934503E2
:1016D000203131050CF0B8C0CF0182959295907FF2
:1016E0009827807F9827DC01A055BE4FA20FB31F1B
:1016F00011960C911197002309F4A6C0A091AA019C
:10170000B091AB01C02FDD27C7FDD095CA17DB070D
:1017100009F49AC02F30310509F496C001E010E0B9
:1017200035C06F5F7F4F709348036093470360310C
:1017300071050CF085C0A0915A03B0915B03A2958E
:10174000B295B07FBA27A07FBA27A055BE4FA60F8B
:10175000B71F11968C911197882309F471C0A0913D
:10176000AA01B091AB01992787FD90958A179B0735
:1017700009F466C06F30710509F462C0AF01CF0192
:1017800082959295907F9827807F98279C0120557D
:101790003E4F260F371FE9012A81332727FD309559
:1017A000A217B30709F0BDCF6F5F7F4F20913D03B4
:1017B00030913E036217730764F436C040913F03D3
:1017C00050914003CA0182959295907F9827807F1F
:1017D0009827820F931F80559E4F6091AA01FC01AC
:1017E000608380E0622F0E9499038091AA0160913A
:1017F0003D0340913F030E94990320913D033091A6
:101800003E032F5F3F4F30933E0320933D03609193
:101810004703709148036F5F7F4F6217730774F639
:10182000E0913F03F0914003109338030093370396
:101830007093480360934703603171050CF47BCFCC
:101840002091390330913A03A90130934803209342
:10185000470330933E0320933D03F0935B03E093F3
:101860005A03F0934603E0934503121613060CF057
:10187000B4C0CF0182959295907F9827807F98275A
:10188000D901A80FB91FA155BE4FAC91AA2309F4E5
:10189000A4C06091AA017091AB01BB27A7FDB095D0
:1018A000A617B70709F499C02130310509F495C08E
:1018B00001E010E034C09A012150304030934803D9
:1018C00020934703121613060CF083C0A0915A030D
:1018D000B0915B03A295B295B07FBA27A07FBA27DB
:1018E000A20FB31FA155BE4F8C91882309F471C07C
:1018F0006091AA017091AB01992787FD9095861799
:10190000970709F466C02130310509F462C0A901C6
:10191000CF0182959295907F9827807F9827280FF6
:10192000391F22553E4FD9012C91332727FD309581
:101930006217730709F0BFCF60913D0370913E03BA
:101940009A0121503040621773075CF436C08091D1
:101950003F039091400382959295907F9827807FD6
:101960009827860F971F80559E4F2091AA01EC0162
:10197000288380E0409145030E9499038091AA0149
:1019800060913D03409145030E94990360913D039E
:1019900070913E036150704070933E0360933D032D
:1019A000209147033091480321503040621773075C
:1019B00074F6E0913F03F0914003109338030093D5
:1019C00037033093480320934703121613060CF491
:1019D0007DCF2091390330913A03B9013093480308
:1019E0002093470330933E0320933D03F0935B0322
:1019F000E0935A03F0934603E09345032031310509
:101A00000CF04FC1E031F1050CF04BC1DF01119634
:101A1000ED01C295D295D07FDC27C07FDC27C05571
:101A2000DE4FC20FD31F8981882309F43AC1409148
:101A3000AA015091AB01992787FD909584179507CE
:101A400009F42FC1EF30F10509F42BC12F30310516
:101A500009F427C1C90101E010E038C0CB010196AB
:101A6000FD019093480380934703F0935B03E09359
:101A70005A03803191050CF00CC1E031F1050CF0F6
:101A800008C1DF011196ED01C295D295D07FDC2708
:101A9000C07FDC27C055DE4FC80FD91F2981222304
:101AA00009F4F7C04091AA015091AB01332727FDFB
:101AB00030952417350709F4ECC0EF30F10509F42F
:101AC000E8C08F30910509F4E4C0BC01E295F295BD
:101AD000F07FFE27E07FFE27E053FE4FE80FF91F5F
:101AE0008281992787FD90954817590709F0B6CF4D
:101AF000CB01019660913D0370913E0386179707D5
:101B00000CF49EC3FD014091450350914603A41778
:101B1000B5074CF442C0E0915A03F0915B03319653
:101B2000E417F507D4F1FA01E295F295F07FFE276C
:101B3000E07FFE27E60FF71FE055FE4F8091AA01D8
:101B4000808380E00E9499038091AA0160913D0307
:101B5000409145030E94990360913D0370913E03BB
:101B60006F5F7F4F70933E0360933D034091450349
:101B7000509146034F5F5F4F509346034093450398
:101B800080914703909148030196861797071CF6AA
:101B9000E0915A03F0915B03319610933803009360
:101BA00037035FCF809137039091380381309105DF
:101BB00009F06AC08091B0029091B10201969093B1
:101BC000B1028093B0022091AC013091AD012F5F42
:101BD0003F4F3093AD012093AC0180FD2BC380E0DB
:101BE00062E271E00E949E0240913F0350914003E7
:101BF0006091390370913A03FA01E295F295F07F12
:101C0000FE27E07FFE27E60FF71FE055FE4F80918D
:101C1000AA01808380E00E9499038091AA016091CB
:101C2000390340913F030E94990340913F03509133
:101C300040036091390370913A03FA01E295F295FD
:101C4000F07FFE27E07FFE27E60FF71FE055FE4FEF
:101C50008081992787FD90959093B3028093B2027B
:101C600083E0808380E00E9499038091AA016091C3
:101C7000390340913F030E94990383E06091390347
:101C800040913F030E949903DF91CF911F910F91E3
:101C900008952091390330913A03E0913F03F09188
:101CA0004003A901309348032093470330933E0338
:101CB00020933D03F0935B03E0935A03F0934603B4
:101CC000E0934503121613060CF0DBC01E161F0628
:101CD0000CF0D7C0CF010197DC01A295B295B07F7F
:101CE000BA27A07FBA27A20FB31FA155BE4FAC9150
:101CF000AA2309F4C6C06091AA017091AB01BB2769
:101D0000A7FDB095A617B70709F4BBC0E130F105F0
:101D100009F4B7C02130310509F4B3C001E010E087
:101D20003BC09A0121503040A901309348032093D1
:101D30004703FC0190935B0380935A03121613062A
:101D40000CF097C0181619060CF093C09C01215096
:101D50003040D901A295B295B07FBA27A07FBA27AB
:101D6000A40FB51FA155BE4FAC91AA2309F481C0A1
:101D70006091AA017091AB01BB27A7FDB095A61792
:101D8000B70709F476C08130910509F472C041307B
:101D9000510509F46EC0C901E295F295F07FFE2766
:101DA000E07FFE27E40FF51FE257FE4F2081332727
:101DB00027FD30956217730709F0B3CF60913D039B
:101DC00070913E039A0121503040621773070CF462
:101DD0004BC04091450350914603481759074CF4B6
:101DE00043C080915A0390915B03019748175907AC
:101DF000DCF1FA01E295F295F07FFE27E07FFE2705
:101E0000E60FF71FE055FE4F8091AA01808380E026
:101E10000E9499038091AA0160913D03409145037E
:101E20000E94990360913D0370913E0361507040A0
:101E300070933E0360933D034091450350914603E8
:101E4000415050405093460340934503209147032F
:101E500030914803215030406217730714F6809187
:101E60005A0390915B030197109338030093370353
:101E70005BCF2091390330913A03E0913F03F09119
:101E80004003D901309348032093470330933E0326
:101E900020933D03CF01F0935B03E0935A03F0934B
:101EA0004603E09345031A161B060CF0DEC0E03132
:101EB000F1050CF0DAC0AF014F5F5F4FEA01C29548
:101EC000D295D07FDC27C07FDC27C20FD31FC1553E
:101ED000DE4F0881002309F4C8C06091AA01709107
:101EE000AB01C02FDD27C7FDD095C617D70709F472
:101EF000BCC0EF30F10509F4B8C02130310509F458
:101F0000B4C0C1E0D0E03AC0CA019D0121503040C8
:101F1000309348032093470390935B0380935A03C5
:101F2000121613060CF099C0803191050CF095C083
:101F3000AC014F5F5F4FFA01E295F295F07FFE270B
:101F4000E07FFE27E20FF31FE155FE4FE081EE2315
:101F500009F483C06091AA017091AB01FF27E7FDEE
:101F6000F095E617F70709F478C08F30910509F46A
:101F700074C02130310509F470C0D901FC01E2952B
:101F8000F295F07FFE27E07FFE27E20FF31FE2537A
:101F9000FE4F8081992787FD90956817790709F092
:101FA000B3CF60913D0370913E039D0121503040BD
:101FB000621773070CF446C1CA0140914503509162
:101FC0004603841795074CF443C080915A039091BF
:101FD0005B03019684179507DCF1FA01E295F2950F
:101FE000F07FFE27E07FFE27E60FF71FE055FE4F4C
:101FF0008091AA01808380E00E9499038091AA01C8
:1020000060913D03409145030E94990360913D0317
:1020100070913E036150704070933E0360933D03A6
:1020200040914503509146034F5F5F4F50934603E5
:10203000409345032091470330914803215030409D
:102040006217730714F680915A0390915B0301960F
:10205000D0933803C09337035BCF2091390330917D
:102060003A03E0913F03F0914003309348032093FB
:10207000470330933E0320933D03F0935B03E093CB
:102080005A03F0934603E0934503203131050CF0E9
:1020900089CD1E161F060CF085CDDF011197ED01CD
:1020A000C295D295D07FDC27C07FDC27C055DE4F9C
:1020B000C20FD31F8981882309F474CD4091AA01EE
:1020C0005091AB01992787FD90958417950709F4E6
:1020D00069CDE130F10509F465CD2F30310509F402
:1020E00061CDC90101E010E03AC0C90101969093A9
:1020F000480380934703FD01B0935B03A0935A0309
:10210000803191050CF04ECD1A161B060CF04ACD0D
:10211000BD0161507040EB01C295D295D07FDC27A4
:10212000C07FDC27C055DE4FC80FD91F298122236D
:1021300009F438CD4091AA015091AB01332727FD16
:1021400030952417350709F42DCDA130B10509F4D8
:1021500029CD8F30910509F425CD9C01DB01E29555
:10216000F295F07FFE27E07FFE27E057FE4FE80F55
:10217000F91F8281992787FD90954817590709F023
:10218000B4CFC901019660913D0370913E0386175B
:1021900097070CF44AC040914503509146034A17F3
:1021A0005B074CF442C0A0915A03B0915B031197B6
:1021B0004A175B07D4F1FA01E295F295F07FFE270A
:1021C000E07FFE27E60FF71FE055FE4F8091AA0142
:1021D000808380E00E9499038091AA0160913D0371
:1021E000409145030E94990360913D0370913E0325
:1021F0006F5F7F4F70933E0360933D0340914503B3
:10220000509146034150504050934603409345033C
:1022100080914703909148030196861797071CF613
:10222000A0915A03B0915B03119710933803009368
:1022300037035DCF80E063E371E00E949E02D4CC5F
:10224000FD01ABCCCA0104CF8091B0029091B102E4
:1022500001969093B1028093B00280FD06C080E0A9
:1022600062E271E00E949E02089580E063E371E003
:102270000E949E020895AF92BF92CF92DF92EF929A
:10228000FF920F931F93DF93CF93CDB7DEB768977D
:102290000FB6F894DEBF0FBECDBF7E010894E11CDF
:1022A000F11CC7010E94F7069DE0C92ED12CCC0E6F
:1022B000DD1EC6010E94F7060E94D40700E010E070
:1022C00082E0A82EB12C3CC08C81813009F485C0FD
:1022D0008D81813009F499C08E81813009F4A1C0CB
:1022E0008981813009F4B5C08A81813009F4C9C07F
:1022F00080E0B6010E9411078F85813009F455C036
:102300008889813009F45DC08989813009F471C000
:102310008A89813009F491C08D85813009F4A5C086
:102320008E85813009F4B9C08091B0029091B102DC
:10233000B5010E94771201969093AB018093AA0198
:102340001092420310924103109238031092370307
:102350000E941E0385E08A95F1F700000F5F1F4F72
:102360008FE0003A180709F4AEC085E10C37180772
:1023700009F49FC081E0B7010E9411078B81813071
:1023800009F0A2CF8985882309F09ECF0E94ED082D
:1023900081E064E471E00E949E0280E0B6010E9448
:1023A00011078F85813009F0ABCF8D89882309F023
:1023B000A7CF0E94ED0881E064E471E00E949E02D4
:1023C000B3CF8E89882309F09FCF0E94520981E004
:1023D00065E571E00E949E02A7CF8A85882309F0F7
:1023E00077CF0E94520981E065E571E00E949E026C
:1023F0007FCF8F89882309F08BCF0E94820881E0EC
:1024000066E671E00E949E028FCF8B85882309F0DB
:1024100063CF0E94820881E066E671E00E949E021E
:1024200067CF8C85882309F05BCF0E94190881E073
:1024300067E771E00E949E025BCF888D882309F0D8
:102440006BCF0E94190881E067E771E00E949E024D
:102450006BCF8F81882309F047CF0E94B50981E0B7
:1024600068E871E00E949E0243CF8B89882309F0BF
:1024700057CF0E94B50981E068E871E00E949E0292
:1024800053CF8885882309F033CF0E94241181E03F
:1024900069E971E00E949E022BCF8C89882309F0A4
:1024A00043CF0E94241181E069E971E00E949E02FD
:1024B0003BCF83E06091390340913F030E94990331
:1024C00000E010E057CF80E06091390340913F0376
:1024D0000E9499034FCF991B79E004C0991F96176A
:1024E00008F0961B881F7A95C9F78095089597FB89
:1024F000092E07260AD077FD04D02ED006D0002062
:102500001AF4709561957F4F0895F6F7909581952F
:102510009F4F0895A1E21A2EAA1BBB1BFD010DC0FF
:10252000AA1FBB1FEE1FFF1FA217B307E407F50783
:1025300020F0A21BB30BE40BF50B661F771F881F5F
:10254000991F1A9469F760957095809590959B01F5
:10255000AC01BD01CF010895AA1BBB1B51E107C00F
:10256000AA1FBB1FA617B70710F0A61BB70B881F23
:10257000991F5A95A9F780959095BC01CD010895B2
:10258000FB01DC0105900D920020E1F70895F8941D
:02259000FFCF7B
:1025920052756E6E696E672044656D6F2E2E2E2009
:1025A2000020202020202020202020202020202049
:1025B2002000477265656E207475726E202020209F
:1025C200202000526564207475726E202020202025
:1025D200202020007565202020202020202020207F
:1025E20020202020007369746120202020202020D8
:1025F2002020202020006869646172692020202048
:10260200202020202020006D6967692020202020C2
:1026120020202020202020007075742020202020DF
:10262200202020202020202000736B697020202091
:0E263200202020202020202020000100010078
:00000001FF
