:100000000C9486000C94A5000C94A5000C94A500FB
:100010000C94A5000C94A1070C94A5000C94A500C9
:100020000C94A5000C94A5000C94A5000C94A500BC
:100030000C94A5000C94A5000C94A5000C94CC067F
:100040000C94A5000C94A5000C94A5000C94A5009C
:100050000C94A5000C94A5000C94A5000C94A5008C
:100060000C94A5000C94A5000C94A5000C94A5007C
:100070000C94A5000C94A5000C94A5000C94A5006C
:100080000C94A5000C94A5000C94A5004C6574720A
:100090006F3A2053656C6563744170700030312095
:1000A0003A2044656D6F2020202020202000000091
:1000B000003032203A20536F756E6420546573749B
:1000C00020000000003033203A204F746865726FC2
:1000D000202020202000000000536F6674526573BA
:1000E00065744D656E7520200000457869743F2069
:1000F0002A4F4B20204E4F20202000457869743F26
:1001000020204F4B202A4E4F2020200011241FBEBC
:10011000CFEFD0E4DEBFCDBF11E0A0E0B1E0E6E577
:10012000FAE200E00BBF02C007900D92AC3AB107B3
:10013000D9F713E0ACEAB1E001C01D92AB37B107CB
:10014000E1F70E9435050C9429150C9400008F925C
:100150009F92AF92BF92CF92DF92EF92FF920F9356
:100160001F93DF93CF93CDB7DEB768970FB6F894A0
:10017000DEBF0FBECDBF80E060E071E00E949E0256
:1001800081E061E171E00E949E027E010894E11C21
:10019000F11CC7010E94F7068E01035F1F4FC801C3
:1001A0000E94F7068091AD01882309F0CBC0CC24D2
:1001B0008824DD249924AA24A394BB24B3943FC0AB
:1001C0008B81813009F457C08C81813009F480C063
:1001D0008D81813009F499C08E81813009F49EC0EF
:1001E00081E0B8010E9411078D85813009F453C068
:1001F0008F85813009F463C08889813009F472C029
:100200008989813009F478C08A89813009F490C0E5
:100210008B2D682D4C2D0E9499038A2D692D4D2D13
:100220000E9499030E941E038FE891E00197F1F765
:1002300000C000008091AD01882309F083C080E0F8
:10024000B7010E9411078981813009F0B9CF8F81F0
:10025000882309F0B5CF8B2D813009F489C0823015
:1002600009F48CC0833009F0ABCFBB24B3948B81ED
:10027000813009F0A9CF8985882309F0A5CFCC204A
:1002800009F4AECFCA9481E0B8010E9411078D85B0
:10029000813009F0ADCF8B89882309F0A9CF9A2D41
:1002A000913009F462C0923009F465C0933009F0CE
:1002B0009FCFAA24A3948F85813009F09DCF8D898B
:1002C000882309F099CFDD2009F4A2CFDA94A0CFDA
:1002D0008A85882309F07CCF9C2D9F3008F080CF41
:1002E000C3947ECF8E89882309F08ACF8D2D8F30DD
:1002F00008F08ECFD3948CCF8F89882309F084CFD8
:10030000992009F485CF9A9483CF8B85882309F0AF
:1003100063CF882009F464CF8A9462CF8C858823C8
:1003200009F05ECF882D8F3008F05ACF839458CFD4
:10033000888D882309F06CCF992D9F3008F068CF05
:10034000939466CF68960FB6F894DEBF0FBECDBF0C
:10035000CF91DF911F910F91FF90EF90DF90CF90A1
:10036000BF90AF909F908F90089592E0A92E40CFBC
:1003700032E0B32E25CF83E0A82E3ACF23E0B22E71
:100380001FCF0E942011089508958FE59AEE0197DE
:10039000F1F700C0000083E488B94698EFE0F0E48C
:1003A0003197F1F700C0000088B94698EFE8F1E016
:1003B0003197F1F700C0000088B946988FE39CE9B7
:1003C0000197F1F700C0000081E488B94698EFE397
:1003D000FCE93197F1F700C00000089587B1807FF4
:1003E00087B990E698B986B188B18F7988B998B9FC
:1003F00086B188B18F7988B980E090E030E625E059
:100400002A95F1F70000019638B926B128B12F7965
:1004100028B938B926B128B12F7928B922E080301F
:10042000920769F787B18F6787B9089582E488B921
:10043000469888E488B946980E94EE01089590E4B1
:1004400098B94698886488B946980E94EE01089544
:1004500080E488B9469881E488B946980E94EE0104
:10046000089580E488B9469886E488B946980E9441
:10047000EE010895982F92959770986498B94698D0
:100480008F70806488B946980E94EE010895982F75
:1004900092959F70906598B946988F70806588B9DD
:1004A00046988091B2028F5F8093B2020E94EE0163
:1004B00008951F93CF93DF93EC018881882351F037
:1004C00010E00E9447021F5FFE01E10FF11D8081D5
:1004D0008823B9F7DF91CF911F910895DC012C910A
:1004E0002223B9F020E02F5FFC01E20FF11D3081E3
:1004F0003323C9F7DB019C91992369F080E0908355
:100500008F5FDB01A80FB11D9C919923C1F7108269
:100510000895FC01EFCF80E0FACF87B18F6787B9EC
:100520000E94C5010E94160284E00E941F020E94E0
:1005300028020E9431021092B20208951F93CF93B5
:10054000DF93EB018823A1F41092B2020E943A02D9
:100550008881882349F0219610E10E944702899101
:10056000882311F01150C9F7DF91CF911F910895A1
:10057000813019F08091B202E9CF80E48093B20219
:10058000E5CF2898289A08952998299A08958823CC
:1005900011F42A9808952A9A089520E030E008C0BE
:1005A0002A9A2898289A2F5F3F4F2031310589F0E9
:1005B000AC01022E02C0569547950A94E2F740FD21
:1005C000EFCF2A982898289A2F5F3F4F2031310586
:1005D00079F70895803148F420E030E802C036957C
:1005E00027958A95E2F7C901089520E030E8C9010E
:1005F0000895CF93DF93FC016031E8F42091F60277
:100600003091F702A62FB0E0ED01CC0FDD1FC20F35
:10061000D31F88819981809590959183808350968E
:10062000AA0FBB1FA20FB31F8D919C9111978095AC
:10063000909593838283DF91CF9108956091F30227
:10064000603148F080E090E89093F5028093F402E6
:100650001092F30260E088EF92E00E94F90280912C
:10066000FA029091FB020E94CD028091F8029091D3
:10067000F9020E94CD028091F4029091F5020E944D
:10068000CD022998299A8091F4029091F5029695CD
:1006900087959093F5028093F4028091F3028F5F27
:1006A0008093F30208951F9310E20E941E031150DD
:1006B000E1F780E090E00E94CD0280E090E00E94AF
:1006C000CD0280E090E00E94CD0280E090E00E94A8
:1006D000CD022998299A1F91089584B1876084B921
:1006E000E3EBF2E0F093F702E093F60280E090E8AB
:1006F0009093F5028093F4021092F30211921192FA
:1007000082E0E33FF807D1F70E945303089580E0A9
:1007100090E89093F5028093F4021092F302E09136
:10072000F602F091F70280E2119211928150E1F706
:100730000895CF93DF93882371F5403148F56031F8
:1007400038F5C091F602D091F702E42FF0E0DF0116
:10075000AA0FBB1FAC0FBD1F80E090E802C09695AA
:1007600087956A95E2F7809590952D913C91119728
:100770002823392311963C932E937096EE0FFF1F7A
:10078000EC0FFD1F20813181282339233183208301
:10079000DF91CF910895813079F1823009F449C019
:1007A0008330B1F74031A0F7603190F7C091F60285
:1007B000D091F702E42FF0E0DF01AA0FBB1FAC0FCE
:1007C000BD1F80E090E802C0969587956A95E2F794
:1007D0002D913C911197282B392B11963C932E93F8
:1007E0007096EE0FFF1FEC0FFD1F20813181282B2B
:1007F000392B31832083CCCF403150F6603140F625
:1008000050E0440F551FA091F602B091F702A40FDB
:10081000B51F20E030E802C0369527956A95E2F7CB
:100820008D919C911197822B932B11969C938E9373
:10083000AFCF403108F0ACCF603108F0A9CF50E025
:10084000405F5F4F440F551FE091F602F091F702B1
:10085000E40FF51F20E030E802C0369527956A9531
:10086000E2F780819181822B932B9183808390CFBB
:100870008F929F92AF92BF92CF92DF92EF92FF92B0
:100880000F931F93E82EF62E142FD22E922E961A27
:1008900097FC4EC0BB24B394A02EA11AA7FC44C061
:1008A000CC24C3948E2D6F2D412F0E949903A9143F
:1008B0001CF10117B1F0990C8A2C8194880CD12E6F
:1008C000DC0C10E0190D1A1514F0FB0C180D8E2D10
:1008D0006F2D4D2D0E949903DC0C8D2D8C1908175E
:1008E00089F71F910F91FF90EF90DF90CF90BF900D
:1008F000AF909F908F900895DF1499F3AA0C892CE4
:100900008194880CFB0C00E00A0D091514F01C0DF5
:10091000080D8E2D6F2D412F0E949903FB0C8F2DFA
:100920008B19D81689F7DDCFA194CC24CA94BACFFD
:100930009194BB24BA94B0CFCF93DF93882309F46A
:1009400046C018160CF046C0A82FBB27A7FDB095CF
:100950002091F6023091F702F90150E180819181F6
:100960000A2E02C0880F991F0A94E2F7819391938F
:100970005150A1F716160CF044C0F901772767FD16
:100980007095DB01AA0FBB1FA20FB31F80E090E0A0
:100990000AC0118210820196329612962E5F3F4F46
:1009A00080319105A1F0AC01460F571F4031510530
:1009B00084F74D915C911197E90159834883019621
:1009C000329612962E5F3F4F8031910561F7DF918D
:1009D000CF910895A82FBB27A7FDB0952091F602CF
:1009E0003091F702F90140E1808191810A2E02C025
:1009F000969587950A94E2F7819391934150A1F7D8
:100A0000B9CF462F552747FD50956FE0862F90E0D0
:100A1000DC01A40FB51FB7FD15C0FC01EE0FFF1FD1
:100A2000E20FF31FAA0FBB1FA20FB31F8D919C9162
:100A3000918380836150862F90E0DC01A40FB51F65
:100A4000B7FFEBCFFC01EE0FFF1FE20FF31F118288
:100A500010826150F0CF8091F6029091F7020895D4
:100A60009093F7028093F60208950E948D020E94EF
:100A70006D030E9442050E9470070E9405070E94B4
:100A80006605FDCF10920D030895DF93CF930F926B
:100A9000CDB7DEB789830E947D078981813081F0DF
:100AA000813040F0823011F40E94C1010F90CF914B
:100AB000DF9108950E94A7000F90CF91DF910895D4
:100AC0000E94C4010F90CF91DF910895DF92EF92C1
:100AD000FF920F931F93DF93CF93CDB7DEB7689745
:100AE0000FB6F894DEBF0FBECDBF8EE093E06CE88A
:100AF00070E00E94421280E06EE073E00E949E026D
:100B00008EE093E06DE970E00E94421281E06EE0B9
:100B100073E00E949E020E947F078E010F5F1F4FAD
:100B2000C8010E94F7069DE0E92EF12CEC0EFD1E97
:100B3000C7010E94F70682E0D82E8091AD0188237C
:100B4000E9F580E0B8010E9411078981813009F43C
:100B500055C08B81813009F45DC08C81813009F4EE
:100B6000A0C081E0B7010E9411078D85813009F492
:100B700075C08F85813009F47DC088898130E9F6A0
:100B80009E899923D1F690910D03992309F47BC096
:100B9000913009F4A0C0923081F610920D038EE0DE
:100BA00093E06DE970E00E94421281E06EE073E034
:100BB0000E949E028091AD01882319F28EE093E09D
:100BC0006CE870E00E94421280E06EE073E00E94E8
:100BD0009E028EE093E06DE970E00E94421281E097
:100BE0006EE073E00E949E021092AD0180E0B801B9
:100BF0000E9411078981813009F0ABCF8F81882352
:100C000009F0A7CF80910D030E9445058B818130AB
:100C100009F0A3CF9985992309F09FCF90910D03F7
:100C2000992309F44AC0913009F463C0923009F065
:100C300098CF10920D038EE093E06DE970E00E9472
:100C4000421281E06EE073E00E949E0281E0B701F3
:100C50000E9411078D85813009F08BCF8B89882305
:100C600009F087CF80910D030E9445058F85813063
:100C700009F083CF9D89992309F07FCF90910D03CF
:100C8000992309F085CF80930D038EE093E061EB0B
:100C900070E00E94421281E06EE073E00E949E02CA
:100CA0004CCF9A85992309F05CCF90910D0399233D
:100CB00021F0913009F0BACFBCCF80930D038EE0C4
:100CC00093E061EB70E00E94421281E06EE073E01D
:100CD0000E949E0246CFD0920D038EE093E065EC19
:100CE00070E00E94421281E06EE073E00E949E027A
:100CF00024CFD0920D038EE093E065EC70E00E946B
:100D0000421281E06EE073E00E949E022ACF8AB117
:100D100080638AB91092800085E0809381000895F5
:100D2000EFE6F0E080818E7F80838BB18F7C8BB982
:100D3000089580911F0308950F931F93182F062F76
:100D4000843FC0F440E050E088E120E0209320039D
:100D5000809F002D112400931F0350938500409322
:100D60008400B09A80916F00816080936F001F9122
:100D70000F910895282F30E040E050E064E274EFD6
:100D800080E090E00E940C122195812F6AE00E9481
:100D9000ED11422F50E0DACF1F920F920FB60F9253
:100DA00011242F938F939F932FB78091200390E06E
:100DB00090938500809384008BB190E189278BB953
:100DC0005C990CC080911F03815080931F0388237E
:100DD00029F480916F008E7F80936F002FBF9F91C9
:100DE0008F912F910F900FBE0F901F901895FC01BF
:100DF0001082118212821382148215821682178247
:100E00001086118612861386089581B111B88AB1B1
:100E100083738AB982B18FEF82B98BB18C6C8BB935
:100E20000895FB01908196839181978392819087A9
:100E30009381918794819287958193878823A9F4E0
:100E4000019916C081E08083009B15C01182029B2E
:100E500016C01282039B17C01382049B18C0148211
:100E6000059919C081E0858308958130B1F0089516
:100E700010820099EBCF81E081830299EACF81E073
:100E800082830399E9CF81E083830499E8CF81E0ED
:100E90008483059BE7CF15820895069B13C01082BB
:100EA00007991BC081E081834B9B14C012824A9B2F
:100EB0000EC013824E9B08C014824F99ECCF81E084
:100EC000858308958083ECCF81E08483F6CF81E031
:100ED0008383F0CF81E08283EACF1182E5CF08954A
:100EE00024982C9AE8E6F0E0808182608083ECE62A
:100EF000F0E0808180618083089578940895ECE625
:100F0000F0E080818F7E80830895CF93DF93C1E2EC
:100F1000D3E0CE0169ED70E00E94421280E0BE0194
:100F20000E949E02CE016AEE70E00E94421281E0B1
:100F3000BE010E949E0281E08093AD01DF91CF91BE
:100F400008951F920F920FB60F920BB60F921124B5
:100F50001F932F933F934F935F936F937F938F9341
:100F60009F93AF93BF93EF93FF931FB78FE99FE0DA
:100F70000197F1F700C000000E94850778941FBF19
:100F8000FF91EF91BF91AF919F918F917F916F9161
:100F90005F914F913F912F911F910F900BBE0F903A
:100FA0000FBE0F901F901895CF92DF92EF92FF9295
:100FB0000F931F93CF93DF9380913F039091400352
:100FC0008530910509F423C1863091050CF455C094
:100FD0008830910509F49FC08336910509F491C0CA
:100FE00086309105E1F540913D0350913E036091BB
:100FF0003703709138038091B002FA01E295F295BF
:10100000F07FFE27E07FFE27E60FF71FE255FE4F39
:1010100080830E94990360913703709138036F3089
:1010200071050CF0D5C740913D0350913E03FA0184
:10103000E295F295F07FFE27E07FFE27E60FF71F8F
:10104000E155FE4F8081992787FD90959093B102DD
:101050008093B00283E080836F5F0E94990381E0F8
:1010600062E271E00E949E02DF91CF911F910F9189
:10107000FF90EF90DF90CF9008958230910509F4B2
:1010800088C08430910559F740913D0350913E034B
:1010900060913703709138038091B002FA01E295B4
:1010A000F295F07FFE27E07FFE27E60FF71FE2555F
:1010B000FE4F80830E94990360913703709138033B
:1010C000161617060CF0D6C740913D0350913E030B
:1010D000FA01E295F295F07FFE27E07FFE27E60F0A
:1010E000F71FE355FE4F8081992787FD90959093D8
:1010F000B1028093B00283E0808361500E94990323
:10110000AECF8091AE029091AF0201969093AF0264
:101110008093AE02A4CF40913D0350913E03609175
:101120003703709138038091B002FA01E295F2958D
:10113000F07FFE27E07FFE27E60FF71FE255FE4F08
:1011400080830E94990340913D0350913E03141601
:1011500015060CF079C7FA01319760913703709149
:101160003803E295F295F07FFE27E07FFE27E60F39
:10117000F71FE255FE4F8081992787FD9095909348
:10118000B1028093B00283E0808341500E949903B2
:1011900066CF40913D0350913E03609137037091BB
:1011A00038038091B002FA01E295F295F07FFE27B4
:1011B000E07FFE27E60FF71FE255FE4F80830E9477
:1011C000990340913D0350913E034F3051050CF07F
:1011D00026C7FA0131966091370370913803E29582
:1011E000F295F07FFE27E07FFE27E60FF71FE2551E
:1011F000FE4F8081992787FD90959093B10280934F
:10120000B00283E080834F5F0E94990328CFA091B2
:101210003703B0913803BD01B0933C03A0933B0367
:10122000B0934603A093450300913D0310913E0304
:10123000109344030093430310937A0300937903BC
:101240008091B0029091B102009709F008CF00316F
:1012500011050CF0A6C098012F5F3F4FF901E295F0
:10126000F295F07FFE27E07FFE27EA0FFB1FE25595
:10127000FE4F4081442309F494C08091A7019091CE
:10128000A801552747FD50954817590709F489C00B
:101290000F30110509F485C0C1E0D0E02FC08901ED
:1012A00010937A0300937903003111050CF075C097
:1012B00098012F5F3F4FF901E295F295F07FFE27ED
:1012C000E07FFE278091450390914603E80FF91FC8
:1012D000E255FE4F4081442309F45FC08091A7018D
:1012E0009091A801552747FD50954817590709F4D3
:1012F00054C00F30110509F450C0BD010E5F1F4FDF
:1013000002951295107F1027007F10270A0F1B1FD0
:1013100002551E4FF8014081552747FD509584170F
:10132000950709F0BCCF89014091430350914403D4
:10133000241735072CF42CC06091370370913803C3
:101340008091A701FA01E295F295F07FFE27E07FF8
:10135000FE27E60FF71FE255FE4F80830E94990398
:1013600040914303509144034F5F5F4F50934403B8
:10137000409343030091790310917A030F5F1F4F4D
:1013800004171507CCF66091370370913803DB0121
:10139000D0933603C093350383CF00913D03109162
:1013A0003E03B0934603A0934503B0933C03A09340
:1013B0003B03C80110937A0300937903109344030D
:1013C00000934303181619060CF0A3C0980121508E
:1013D0003040F901E295F295F07FFE27E07FFE278D
:1013E000EA0FFB1FE255FE4FE081EE2309F491C0A6
:1013F0004091A7015091A801FF27E7FDF095E41760
:10140000F50709F486C00130110509F482C0C1E076
:10141000D0E02FC0019790937A0380937903181638
:1014200019060CF072C09C0121503040F901E29580
:10143000F295F07FFE27E07FFE2740914503509113
:101440004603E40FF51FE255FE4FE081EE2309F459
:101450005CC04091A7015091A801FF27E7FDF095DE
:10146000E417F50709F451C08130910509F44DC026
:10147000BD01FC013297E295F295F07FFE27E07FF7
:10148000FE27EA0FFB1FE255FE4FE081FF27E7FD35
:10149000F0954E175F0709F0BDCF4091430350917F
:1014A0004403421753072CF401C66091370370912F
:1014B00038038091A701FA01E295F295F07FFE27AB
:1014C000E07FFE27E60FF71FE255FE4F80830E9464
:1014D000990340914303509144034150504050932D
:1014E0004403409343038091790390917A030197D9
:1014F00048175907D4F66091370370913803DB0120
:10150000D0933603C093350386CF00913D031091ED
:101510003E03B0934603A0934503B0933C03A093CE
:101520003B03F80110937A0300937903109344036B
:1015300000934303A031B1050CF0C1C5A801429549
:101540005295507F5427407F5427EA01C255DE4F01
:10155000CA0FDB1F8981882309F49DC0E090A70191
:10156000F090A801992787FD90958E159F0509F4A5
:1015700092C0AF30B10509F4BBC59D01CD01CC24AB
:10158000DD24C39435C0CB0101969093460380932C
:101590004503803191050CF07FC0C0917903D09153
:1015A0007A03C295D295D07FDC27C07FDC27C25555
:1015B000DE4FC80FD91F4981442309F46DC0E09064
:1015C000A701F090A801552747FD50954E155F05DE
:1015D00009F462C08F30910509F45EC0F8019D01E5
:1015E000BC01A80142955295507F5427407F542753
:1015F000EA01C255DE4FC80FD91F8A81992787FD9E
:101600009095E816F90609F0BECFCB0101966091DE
:101610003B0370913C03861797077CF437C04091D9
:101620003D0350913E03209137033091380342959A
:101630005295507F5427407F54278091A701460F31
:10164000571F42555E4FDA018C93622F409143033E
:101650000E94990360913B0370913C036F5F7F4F41
:1016600070933C0360933B03809145039091460344
:101670000196861797079CF620913703309138031F
:10168000D90100913D0310913E03F801D092360339
:10169000C09235037ACF9D01B0934603A0934503D2
:1016A000B0933C03A0933B0310937A030093790318
:1016B00010934403009343031A161B060CF0A6C0B4
:1016C000A80142955295507F5427407F5427E90145
:1016D000C40FD51FC355DE4F6881662309F496C039
:1016E0008091A7019091A801772767FD70956817F1
:1016F000790709F48BC02130310509F487C0B9019D
:10170000C1E0D0E035C021503040B90130934603EC
:1017100020934503121613060CF074C0A0917903B0
:10172000B0917A03A295B295B07FBA27A07FBA276D
:10173000A60FB71FA355BE4F2C91222309F462C0F8
:101740008091A7019091A801332727FD3095281794
:10175000390709F457C06130710509F453C0F80125
:101760009B01A80142955295507F5427407F5427F2
:10177000640F751F64557E4FDB016C91772767FD01
:1017800070958617970709F0BECF60913B03709163
:101790003C0321503040621773075CF42EC0409127
:1017A0003D0350913E0342955295507F5427407F10
:1017B00054278091A701460F571F42555E4FFA01EB
:1017C0008083409143030E94990360913B03709191
:1017D0003C036150704070933C0360933B03209145
:1017E0004503309146032150304062177307BCF621
:1017F00000913D0310913E03F801D0933603C0934E
:10180000350383CFA0913703B0913803CD01B09356
:101810004603A0934503B0933C03A0933B0310936E
:101820007A03009379031093440300934303A03198
:10183000B1050CF0CFC0003111050CF0CBC0980100
:101840002F5F3F4FE901C295D295D07FDC27C07F43
:10185000DC27C255DE4FCA0FDB1F6981662309F4FE
:10186000B9C04091A7015091A801772767FD7095F5
:101870006417750709F4AEC00F30110509F4AAC04A
:10188000AF30B10509F4A6C0C1E0D0E039C001967F
:10189000F9019093460380934503F0937A03E09314
:1018A0007903803191050CF08DC0E031F1050CF029
:1018B00089C09F012F5F3F4FD901A295B295B07F9C
:1018C000BA27A07FBA27A255BE4FA80FB91F1196FD
:1018D0006C911197662309F475C04091A70150914E
:1018E000A801772767FD70956417750709F46AC02A
:1018F000EF30F10509F466C08F30910509F462C03C
:10190000E295F295F07FFE27E07FFE27E253FE4F3F
:10191000E80FF91F6281772767FD70954617570713
:1019200009F0B5CF019660913B0370913C03861797
:1019300097070CF4C0C3F90140914303509144034D
:10194000241735074CF439C0E0917903F0917A03FC
:101950003196E417F5078CF18091A701FA01E29521
:10196000F295F07FFE27E07FFE27E60FF71FE25596
:10197000FE4F80830E94990360913B0370913C036A
:101980006F5F7F4F70933C0360933B034091430331
:10199000509144034F5F5F4F509344034093430380
:1019A000809145039091460301968617970764F648
:1019B000E0917903F0917A033196D0933603C09386
:1019C000350367CF00913D0310913E03A09137038B
:1019D000B0913803AD01B0934603A0934503B09393
:1019E0003C03A0933B0310937A0300937903109375
:1019F0004403009343031A161B060CF0D4C01016C0
:101A000011060CF0D0C0C8010197FC01E295F295D7
:101A1000F07FFE27E07FFE27EA0FFB1FE355FE4F16
:101A20002081222309F4BFC06091A7017091A80111
:101A3000332727FD30952617370709F4B4C0013046
:101A4000110509F4B0C0A130B10509F4ACC0F8012A
:101A50009D0101E010E03BC09A01215030403093DD
:101A6000460320934503FC0190937A038093790306
:101A7000121613060CF08FC0181619060CF08BC046
:101A8000DC011197AD0142955295507F5427407F5C
:101A90005427420F531F43555E4FEA0148814423A8
:101AA00009F479C06091A7017091A801552747FDFD
:101AB00050954617570709F46EC08130910509F417
:101AC0006AC02130310509F466C0A901CD01E29553
:101AD000F295F07FFE27E07FFE27E20FF31FE45729
:101AE000FE4F2081332727FD30956217730709F0D9
:101AF000B3CF60913B0370913C039A012150304079
:101B0000621773070CF442C04091430350914403A1
:101B1000481759074CF43AC08091790390917A03A1
:101B200001974817590794F18091A701FA01E295AE
:101B3000F295F07FFE27E07FFE27E60FF71FE255C4
:101B4000FE4F80830E94990360913B0370913C0398
:101B50006150704070933C0360933B03409143039A
:101B600050914403415050405093440340934303E9
:101B7000209145033091460321503040621773078E
:101B80005CF68091790390917A0301971093360364
:101B90000093350364CF00913D0310913E03A09163
:101BA0003703B09138039D01B0934603A0934503DA
:101BB000B0933C03A0933B03C80110937A030093B6
:101BC000790310934403009343031A161B060CF089
:101BD000D1C0003111050CF0CDC0A8014F5F5F4F9F
:101BE000FA01E295F295F07FFE27E07FFE27EA0FEB
:101BF000FB1FE355FE4FE081EE2309F4BBC060916B
:101C0000A7017091A801FF27E7FDF095E617F707F8
:101C100009F4B0C00F30110509F4ACC0A130B10512
:101C200009F4A8C0C1E0D0E039C0CA01F901319778
:101C30009F01F0934603E093450390937A038093CA
:101C400079031E161F060CF08DC0803191050CF033
:101C500089C0AC014F5F5F4FDA01A295B295B07FAA
:101C6000BA27A07FBA27AE0FBF1FA355BE4FAC91B6
:101C7000AA2309F477C06091A7017091A801BB273E
:101C8000A7FDB095A617B70709F46CC08F30910572
:101C900009F468C0E130F10509F464C0FC01E29583
:101CA000F295F07FFE27E07FFE27E20FF31FE4535B
:101CB000FE4F8081992787FD90956817790709F075
:101CC000B4CF60913B0370913C03215030406217C8
:101CD00073070CF4EDC1CA014091430350914403D2
:101CE000841795074CF4E9C18091790390917A03A8
:101CF0000196841795078CF18091A701FA01E2956E
:101D0000F295F07FFE27E07FFE27E60FF71FE255F2
:101D1000FE4F80830E94990360913B0370913C03C6
:101D20006150704070933C0360933B0340914303C8
:101D3000509144034F5F5F4F5093440340934303DC
:101D4000E0914503F091460331976E177F0764F6E3
:101D50008091790390917A030196D0933603C093D2
:101D6000350366CF00913D0310913E03A0913703E8
:101D7000B0913803B0934603A0934503B0933C035E
:101D8000A0933B0310937A030093790310934403C9
:101D900000934303A031B1050CF0C6C01016110624
:101DA0000CF0C2C0C8010197FC01E295F295F07FEA
:101DB000FE27E07FFE27E255FE4FEA0FFB1F418121
:101DC000442309F4B1C02091A7013091A8015527FF
:101DD00047FD50954217530709F4A6C0013011057D
:101DE00009F4A2C0AF30B10509F49EC0C1E0D0E053
:101DF00037C0119601501040B0934603A09345039D
:101E000010937A0300937903A031B1050CF08CC0D4
:101E1000101611060CF088C0C8010197FC01E2956C
:101E2000F295F07FFE27E07FFE27E255FE4FEA0F96
:101E3000FB1F4181442309F477C02091A701309111
:101E4000A801552747FD50954217530709F46CC068
:101E50000130110509F468C0AF30B10509F464C060
:101E6000F801E295F295F07FFE27E07FFE27E2572A
:101E7000FE4FEA0FFB1F4281552747FD509524175F
:101E8000350709F0B6CF119660913B0370913C0382
:101E9000A617B7070CF441C0409143035091440387
:101EA0004817590754F439C00091790310917A0307
:101EB000015010404017510794F18091A701FA0199
:101EC000E295F295F07FFE27E07FFE27E60FF71FF1
:101ED000E255FE4F80830E94990360913B0370910D
:101EE0003C036F5F7F4F70933C0360933B034091D3
:101EF0004303509144034150504050934403409356
:101F00004303A0914503B09146031196A617B70766
:101F10005CF60091790310917A0301501040D09340
:101F20003603C093350368CF809135039091360313
:101F30008130910509F093C88091AE029091AF0273
:101F400001969093AF028093AE028091A901909187
:101F5000AA0101969093AA018093A90140913D03A3
:101F600050913E0360913703709138038091A7012F
:101F7000FA01E295F295F07FFE27E07FFE27E60F5B
:101F8000F71FE255FE4F80830E94990340913D0365
:101F900050913E036091370370913803FA01E29546
:101FA000F295F07FFE27E07FFE27E60FF71FE25550
:101FB000FE4F8081992787FD90959093B102809381
:101FC000B00283E080838091A7010E94990347C8F3
:101FD00040913D0350913E03FA013197E295F2950D
:101FE000F07FFE27E07FFE27E60FF71FE255FE4F4A
:101FF0008081992787FD90959093B1028093B002DC
:10200000FA01E295F295F07FFE27E07FFE27E25588
:10201000FE4F83E0808360E00E94990320C86091B6
:10202000370370913803FB01E255FE4F80819927F9
:1020300087FD90959093B1028093B00283E08083F6
:1020400040E00E9499030BC86091370370913803F8
:10205000FB01E256FD4F8081992787FD9095909373
:10206000B1028093B00283E080834FE00E94990325
:102070000C942F0840913D0350913E03FA01E295E4
:10208000F295F07FFE27E07FFE27E255FE4F878521
:10209000992787FD90959093B1028093B00283E0D9
:1020A00087876FE00E9499030C942F08019728CA34
:1020B000CA01F90152CEF90180CCF9014ECE9D0141
:1020C000A80142955295507F5427407F5427309362
:1020D00046032093450330933C0320933B03109326
:1020E0007A03009379031093440300934303EFCAE8
:1020F0002FE030E0ECCFCF93DF93EC010E941E0382
:1021000081E0BE010E9411078A81813041F18B81FB
:102110008130D9F18C81813009F44DC08D818130BD
:1021200009F460C08881813009F473C089818130ED
:1021300029F78F81882311F783E690E0909340037D
:1021400080933F0381E068E771E00E949E0280E097
:1021500069E871E00E949E02DF91CF910895888521
:102160008823A9F688E090E09093400380933F0392
:1021700081E063E271E00E949E0280E069E871E024
:102180000E949E02DF91CF9108958985882311F6E0
:1021900082E090E09093400380933F0381E064E30A
:1021A00071E00E949E0280E069E871E00E949E0258
:1021B000DF91CF9108958A85882309F0AFCF84E01D
:1021C00090E09093400380933F0381E065E471E0E9
:1021D0000E949E0280E069E871E00E949E02DF9109
:1021E000CF9108958B85882309F09CCF86E090E0FD
:1021F0009093400380933F0381E066E571E00E9485
:102200009E0280E069E871E00E949E02DF91CF911A
:1022100008958E81882309F089CF85E090E090931E
:10222000400380933F0381E067E671E00E949E02D5
:1022300080E069E871E00E949E02DF91CF910895ED
:102240008F929F92AF92BF92CF92DF92EF92FF92C6
:102250000F931F93DF93CF93CDB7DEB72C970FB6B5
:10226000F894DEBF0FBECDBF81E08093250280933E
:10227000360267E047E00E94990381E068E048E0A9
:102280000E94990382E0809326028093350267E0E2
:1022900048E00E94990382E068E047E00E949903C9
:1022A00083E08093AE0160E040E00E9499036E01FC
:1022B0000894C11CD11CC6010E94F70657E4E52E04
:1022C00053E0F52E4AE9A42E41E0B42E32E0832EED
:1022D000912C1092400310923F03109236031092FB
:1022E0003503C6010E947B1000D000D000D0EDB7AE
:1022F000FEB73196ADB7BEB71296FC92EE9211972B
:10230000B382A2828091B0029091B10295838483BE
:102310000E9449128DB79EB706960FB6F8949EBFDD
:102320000FBE8DBF81E0B7010E949E02AEEAB1E010
:1023300000E010E060E070E08C918330E1F182E039
:1023400090E0E1E0F0E0AB0142955295507F5427D8
:10235000407F542705C0FC0101968131910509F1A8
:102360009C0121503040E40FF51FE255FE4FE08103
:10237000E33089F710933E0300933D033093380315
:10238000209337030E94D4078091AE029091AF0250
:10239000B4010E94F91101969093A8018093A701BE
:1023A00098CF6F5F7F4F50966031710569F08B0158
:1023B0008C91833021F610933E0300933D031092DD
:1023C000380310923703DECF70933E0360933D03D2
:1023D000F0933803E0933703D7CF991B79E004C01B
:1023E000991F961708F0961B881F7A95C9F7809554
:1023F000089597FB092E07260AD077FD04D02ED02A
:1024000006D000201AF4709561957F4F0895F6F775
:10241000909581959F4F0895A1E21A2EAA1BBB1B90
:10242000FD010DC0AA1FBB1FEE1FFF1FA217B307A0
:10243000E407F50720F0A21BB30BE40BF50B661FB6
:10244000771F881F991F1A9469F76095709580957A
:1024500090959B01AC01BD01CF010895AA1BBB1B48
:1024600051E107C0AA1FBB1FA617B70710F0A61B94
:10247000B70B881F991F5A95A9F780959095BC01B5
:10248000CD010895FB01DC0105900D920020E1F7DC
:1024900008950F931F93DF93CF93CDB7DEB72E9799
:1024A0000FB6F894DEBF0FBECDBF0D891E8986E042
:1024B0008C831A8309838FEF9FE79E838D839E0110
:1024C000275E3F4FCE0101966F89788DA9010E944A
:1024D0007912EF81F885E00FF11F10822E960FB66A
:1024E000F894DEBF0FBECDBFCF91DF911F910F914A
:1024F00008952F923F924F925F926F927F928F92A8
:102500009F92AF92BF92CF92DF92EF92FF920F9382
:102510001F93DF93CF93CDB7DEB72C970FB6F89408
:10252000DEBF0FBECDBF6C011B018A01FC0117820B
:102530001682838181FFD1C12E010894411C511C58
:10254000F6019381F10193FD859193FF81911F0124
:10255000882309F4BEC1853239F493FD859193FF38
:1025600081911F01853229F490E0B6010E949F14E9
:10257000E7CFEE24FF2420E02032B0F48B3269F064
:102580008C3228F4803251F0833271F40BC08D32DA
:1025900039F0803349F421602CC02260246029C0C6
:1025A000286027C0206125C027FD2CC0382F30535C
:1025B0003A3098F426FF08C08E2D880FE82EEE0CD6
:1025C000EE0CE80EE30E15C08F2D880FF82EFF0CD1
:1025D000FF0CF80EF30E20620CC08E3221F426FDA3
:1025E00078C1206406C08C3611F4206802C0883699
:1025F00049F4F10193FD859193FF81911F01882397
:1026000009F0BACF982F9554933018F09052933028
:1026100028F40C5F1F4FFFE3F9830DC0833631F0C0
:10262000833771F0833509F060C022C0F8018081E2
:1026300089830E5F1F4F420171E0A72EB12C16C097
:1026400062E0662E712C600E711EF8018080918010
:1026500026FF03C06E2D70E002C06FEF7FEFC40154
:102660002C870E9494145C0183012C852F7717C05E
:1026700052E0652E712C600E711EF80180809180F1
:1026800026FF03C06E2D70E002C06FEF7FEFC40124
:102690002C870E9489145C012C852068830123FD0E
:1026A00020C008C080E290E0B6012C870E949F14F1
:1026B000FA942C858F2D90E0A816B90698F311C0D6
:1026C000F40127FD859127FF81914F0190E0B6012C
:1026D0002C870E949F142C85F110FA940894A1086D
:1026E000B108A114B10461F7F1C0843611F0893644
:1026F00049F527FF08C0F8016081718182819381CB
:102700000C5F1F4F09C0F80160817181882777FD38
:102710008095982F0E5F1F4F4FE6B42EB22297FF81
:1027200009C090958095709561957F4F8F4F9F4F11
:10273000F0E8BF2AA2012AE030E00E94CB14782EF4
:10274000741845C0853731F43FEEB32EB2222AE02B
:1027500030E025C099EFB92EB2228F36C1F0803714
:1027600020F4883509F0B5C00DC0803721F08837D6
:1027700009F0AFC002C020E1B22AB4FE0BC084E071
:10278000B82A08C0B4FE09C0E6E0BE2A06C028E0A8
:1027900030E005C020E130E002C020E132E0B7FEC9
:1027A00008C0F80160817181828193810C5F1F4FA5
:1027B00007C0F8016081718180E090E00E5F1F4FDB
:1027C000A2010E94CB14782E7418FFE7BF22B6FE38
:1027D0000BC02EEFB2227E1438F4B4FE07C0B2FC58
:1027E00005C08FEEB82202C0A72C01C0AE2C8B2DE5
:1027F00090E0B4FE0DC0FE01E70DF11D20812033F5
:1028000019F4E9EEBE2209C0A394B2FE06C004C0CA
:1028100086789070009709F0A3948B2C9924B3FCD0
:1028200014C0B0FE0FC0AF1428F4E72CEF0CEA1868
:10283000AF2C08C0E72C06C080E290E0B6010E94F1
:102840009F14A394AF14C0F304C0AF1410F4FA188B
:1028500001C0FF2484FE0FC080E390E0B6010E9417
:102860009F1482FE1FC081FE03C088E590E010C067
:1028700088E790E00DC0C40186789070009791F0D1
:1028800081FC02C080E201C08BE2B7FC8DE290E0E7
:10289000B6010E949F1406C080E390E0B6010E943A
:1028A0009F14EA947E14C0F37A94F201E70DF11DAF
:1028B000808190E0B6010E949F147720A9F706C09E
:1028C00080E290E0B6010E949F14FA94FF20C1F7C5
:1028D00037CEF6012681378102C02FEF3FEFC901C5
:1028E0002C960FB6F894DEBF0FBECDBFCF91DF910F
:1028F0001F910F91FF90EF90DF90CF90BF90AF901E
:102900009F908F907F906F905F904F903F902F900F
:102910000895FC010590615070400110D8F7809532
:1029200090958E0F9F1F0895FC016150704001909B
:102930000110D8F7809590958E0F9F1F08950F93E3
:102940001F93CF93DF938C01EB018B8181FF1BC021
:1029500082FF0DC02E813F818C819D812817390710
:1029600064F4E881F9810193F983E88306C0E8857E
:10297000F985802F0995009731F48E819F8101960A
:102980009F838E8302C00FEF1FEFC801DF91CF91AD
:102990001F910F910895FA01AA27283051F1203193
:1029A00081F1E8946F936E7F6E5F7F4F8F4F9F4FE3
:1029B000AF4FB1E03ED0B4E03CD0670F781F891F25
:1029C0009A1FA11D680F791F8A1F911DA11D6A0FF3
:1029D000711D811D911DA11D20D009F468943F91A6
:1029E0002AE0269F11243019305D3193DEF6CF01A5
:1029F0000895462F4770405D4193B3E00FD0C9F76B
:102A0000F6CF462F4F70405D4A3318F0495D31FDD7
:102A10004052419302D0A9F7EACFB4E0A69597952A
:102A2000879577956795BA95C9F700976105710500
:102A300008959B01AC010A2E06945795479537954A
:102A40002795BA95C9F7620F731F841F951FA01DA4
:062A50000895F894FFCF89
:102A560052756E6E696E672044656D6F2E2E2E2040
:102A66000020202020202020202020202020202080
:102A760020000075652020202020202020202020F6
:102A8600202020007369746120202020202020202F
:102A9600202020200068696461726920202020209F
:102AA6002020202020006D6967692020202020201A
:102AB6002020202020200070757420202020202037
:102AC6002020202020202000736B697020202020E9
:102AD600202020202020202000726561645F62751E
:102AE60074746F6E5F6F757420006F6C645F6D61D8
:0C2AF60070203D2025640001000100005C
:00000001FF
