:100000000C9486000C94A5000C94A5000C94A500FB
:100010000C94A5000C94A1070C94A5000C94A500C9
:100020000C94A5000C94A5000C94A5000C94A500BC
:100030000C94A5000C94A5000C94A5000C94CC067F
:100040000C94A5000C94A5000C94A5000C94A5009C
:100050000C94A5000C94A5000C94A5000C94A5008C
:100060000C94A5000C94A5000C94A5000C94A5007C
:100070000C94A5000C94A5000C94A5000C94A5006C
:100080000C94A5000C94A5000C94A5004C6574720A
:100090006F3A2053656C6563744170700030312095
:1000A0003A2044656D6F2020202020202000000091
:1000B000003032203A20536F756E6420546573749B
:1000C00020000000003033203A204F746865726FC2
:1000D000202020202000000000536F6674526573BA
:1000E00065744D656E7520200000457869743F2069
:1000F0002A4F4B20204E4F20202000457869743F26
:1001000020204F4B202A4E4F2020200011241FBEBC
:10011000CFEFD0E4DEBFCDBF11E0A0E0B1E0E4ED71
:10012000F9E200E00BBF02C007900D92A03AB107C0
:10013000D9F713E0A0EAB1E001C01D92AF36B107D4
:10014000E1F70E9435050C94E8140C9400008F929E
:100150009F92AF92BF92CF92DF92EF92FF920F9356
:100160001F93DF93CF93CDB7DEB768970FB6F894A0
:10017000DEBF0FBECDBF80E060E071E00E949E0256
:1001800081E061E171E00E949E027E010894E11C21
:10019000F11CC7010E94F7068E01035F1F4FC801C3
:1001A0000E94F7068091A101882309F0CBC0CC24DE
:1001B0008824DD249924AA24A394BB24B3943FC0AB
:1001C0008B81813009F457C08C81813009F480C063
:1001D0008D81813009F499C08E81813009F49EC0EF
:1001E00081E0B8010E9411078D85813009F453C068
:1001F0008F85813009F463C08889813009F472C029
:100200008989813009F478C08A89813009F490C0E5
:100210008B2D682D4C2D0E9499038A2D692D4D2D13
:100220000E9499030E941E038FE891E00197F1F765
:1002300000C000008091A101882309F083C080E004
:10024000B7010E9411078981813009F0B9CF8F81F0
:10025000882309F0B5CF8B2D813009F489C0823015
:1002600009F48CC0833009F0ABCFBB24B3948B81ED
:10027000813009F0A9CF8985882309F0A5CFCC204A
:1002800009F4AECFCA9481E0B8010E9411078D85B0
:10029000813009F0ADCF8B89882309F0A9CF9A2D41
:1002A000913009F462C0923009F465C0933009F0CE
:1002B0009FCFAA24A3948F85813009F09DCF8D898B
:1002C000882309F099CFDD2009F4A2CFDA94A0CFDA
:1002D0008A85882309F07CCF9C2D9F3008F080CF41
:1002E000C3947ECF8E89882309F08ACF8D2D8F30DD
:1002F00008F08ECFD3948CCF8F89882309F084CFD8
:10030000992009F485CF9A9483CF8B85882309F0AF
:1003100063CF882009F464CF8A9462CF8C858823C8
:1003200009F05ECF882D8F3008F05ACF839458CFD4
:10033000888D882309F06CCF992D9F3008F068CF05
:10034000939466CF68960FB6F894DEBF0FBECDBF0C
:10035000CF91DF911F910F91FF90EF90DF90CF90A1
:10036000BF90AF909F908F90089592E0A92E40CFBC
:1003700032E0B32E25CF83E0A82E3ACF23E0B22E71
:100380001FCF0E945811089508958FE59AEE0197A6
:10039000F1F700C0000083E488B94698EFE0F0E48C
:1003A0003197F1F700C0000088B94698EFE8F1E016
:1003B0003197F1F700C0000088B946988FE39CE9B7
:1003C0000197F1F700C0000081E488B94698EFE397
:1003D000FCE93197F1F700C00000089587B1807FF4
:1003E00087B990E698B986B188B18F7988B998B9FC
:1003F00086B188B18F7988B980E090E030E625E059
:100400002A95F1F70000019638B926B128B12F7965
:1004100028B938B926B128B12F7928B922E080301F
:10042000920769F787B18F6787B9089582E488B921
:10043000469888E488B946980E94EE01089590E4B1
:1004400098B94698886488B946980E94EE01089544
:1004500080E488B9469881E488B946980E94EE0104
:10046000089580E488B9469886E488B946980E9441
:10047000EE010895982F92959770986498B94698D0
:100480008F70806488B946980E94EE010895982F75
:1004900092959F70906598B946988F70806588B9DD
:1004A00046988091A6028F5F8093A6020E94EE017B
:1004B00008951F93CF93DF93EC018881882351F037
:1004C00010E00E9447021F5FFE01E10FF11D8081D5
:1004D0008823B9F7DF91CF911F910895DC012C910A
:1004E0002223B9F020E02F5FFC01E20FF11D3081E3
:1004F0003323C9F7DB019C91992369F080E0908355
:100500008F5FDB01A80FB11D9C919923C1F7108269
:100510000895FC01EFCF80E0FACF87B18F6787B9EC
:100520000E94C5010E94160284E00E941F020E94E0
:1005300028020E9431021092A60208951F93CF93C1
:10054000DF93EB018823A1F41092A6020E943A02E5
:100550008881882349F0219610E10E944702899101
:10056000882311F01150C9F7DF91CF911F910895A1
:10057000813019F08091A602E9CF80E48093A60231
:10058000E5CF2898289A08952998299A08958823CC
:1005900011F42A9808952A9A089520E030E008C0BE
:1005A0002A9A2898289A2F5F3F4F2031310589F0E9
:1005B000AC01022E02C0569547950A94E2F740FD21
:1005C000EFCF2A982898289A2F5F3F4F2031310586
:1005D00079F70895803148F420E030E802C036957C
:1005E00027958A95E2F7C901089520E030E8C9010E
:1005F0000895CF93DF93FC016031E8F42091EA0283
:100600003091EB02A62FB0E0ED01CC0FDD1FC20F41
:10061000D31F88819981809590959183808350968E
:10062000AA0FBB1FA20FB31F8D919C9111978095AC
:10063000909593838283DF91CF9108956091E70233
:10064000603148F080E090E89093E9028093E802FE
:100650001092E70260E08CEE92E00E94F902809135
:10066000EE029091EF020E94CD028091EC029091F7
:10067000ED020E94CD028091E8029091E9020E9471
:10068000CD022998299A8091E8029091E9029695E5
:1006900087959093E9028093E8028091E7028F5F4B
:1006A0008093E70208951F9310E20E941E031150E9
:1006B000E1F780E090E00E94CD0280E090E00E94AF
:1006C000CD0280E090E00E94CD0280E090E00E94A8
:1006D000CD022998299A1F91089584B1876084B921
:1006E000E7EAF2E0F093EB02E093EA0280E090E8C0
:1006F0009093E9028093E8021092E702119211921E
:1007000082E0E73EF807D1F70E945303089580E0A6
:1007100090E89093E9028093E8021092E702E0915A
:10072000EA02F091EB0280E2119211928150E1F71E
:100730000895CF93DF93882371F5403148F56031F8
:1007400038F5C091EA02D091EB02E42FF0E0DF012E
:10075000AA0FBB1FAC0FBD1F80E090E802C09695AA
:1007600087956A95E2F7809590952D913C91119728
:100770002823392311963C932E937096EE0FFF1F7A
:10078000EC0FFD1F20813181282339233183208301
:10079000DF91CF910895813079F1823009F449C019
:1007A0008330B1F74031A0F7603190F7C091EA0291
:1007B000D091EB02E42FF0E0DF01AA0FBB1FAC0FDA
:1007C000BD1F80E090E802C0969587956A95E2F794
:1007D0002D913C911197282B392B11963C932E93F8
:1007E0007096EE0FFF1FEC0FFD1F20813181282B2B
:1007F000392B31832083CCCF403150F6603140F625
:1008000050E0440F551FA091EA02B091EB02A40FF3
:10081000B51F20E030E802C0369527956A95E2F7CB
:100820008D919C911197822B932B11969C938E9373
:10083000AFCF403108F0ACCF603108F0A9CF50E025
:10084000405F5F4F440F551FE091EA02F091EB02C9
:10085000E40FF51F20E030E802C0369527956A9531
:10086000E2F780819181822B932B9183808390CFBB
:100870008F929F92AF92BF92CF92DF92EF92FF92B0
:100880000F931F93E82EF62E142FD22E922E961A27
:1008900097FC4EC0BB24B394A02EA11AA7FC44C061
:1008A000CC24C3948E2D6F2D412F0E949903A9143F
:1008B0001CF10117B1F0990C8A2C8194880CD12E6F
:1008C000DC0C10E0190D1A1514F0FB0C180D8E2D10
:1008D0006F2D4D2D0E949903DC0C8D2D8C1908175E
:1008E00089F71F910F91FF90EF90DF90CF90BF900D
:1008F000AF909F908F900895DF1499F3AA0C892CE4
:100900008194880CFB0C00E00A0D091514F01C0DF5
:10091000080D8E2D6F2D412F0E949903FB0C8F2DFA
:100920008B19D81689F7DDCFA194CC24CA94BACFFD
:100930009194BB24BA94B0CFCF93DF93882309F46A
:1009400046C018160CF046C0A82FBB27A7FDB095CF
:100950002091EA023091EB02F90150E1808191810E
:100960000A2E02C0880F991F0A94E2F7819391938F
:100970005150A1F716160CF044C0F901772767FD16
:100980007095DB01AA0FBB1FA20FB31F80E090E0A0
:100990000AC0118210820196329612962E5F3F4F46
:1009A00080319105A1F0AC01460F571F4031510530
:1009B00084F74D915C911197E90159834883019621
:1009C000329612962E5F3F4F8031910561F7DF918D
:1009D000CF910895A82FBB27A7FDB0952091EA02DB
:1009E0003091EB02F90140E1808191810A2E02C031
:1009F000969587950A94E2F7819391934150A1F7D8
:100A0000B9CF462F552747FD50956FE0862F90E0D0
:100A1000DC01A40FB51FB7FD15C0FC01EE0FFF1FD1
:100A2000E20FF31FAA0FBB1FA20FB31F8D919C9162
:100A3000918380836150862F90E0DC01A40FB51F65
:100A4000B7FFEBCFFC01EE0FFF1FE20FF31F118288
:100A500010826150F0CF8091EA029091EB020895EC
:100A60009093EB028093EA0208950E948D020E9407
:100A70006D030E9442050E9470070E9405070E94B4
:100A80006605FDCF109201030895DF93CF930F9277
:100A9000CDB7DEB789830E947D078981813081F0DF
:100AA000813040F0823011F40E94C1010F90CF914B
:100AB000DF9108950E94A7000F90CF91DF910895D4
:100AC0000E94C4010F90CF91DF910895DF92EF92C1
:100AD000FF920F931F93DF93CF93CDB7DEB7689745
:100AE0000FB6F894DEBF0FBECDBF82E093E06CE896
:100AF00070E00E94011280E062E073E00E949E02BA
:100B000082E093E06DE970E00E94011281E062E012
:100B100073E00E949E020E947F078E010F5F1F4FAD
:100B2000C8010E94F7069DE0E92EF12CEC0EFD1E97
:100B3000C7010E94F70682E0D82E8091A101882388
:100B4000E9F580E0B8010E9411078981813009F43C
:100B500055C08B81813009F45DC08C81813009F4EE
:100B6000A0C081E0B7010E9411078D85813009F492
:100B700075C08F85813009F47DC088898130E9F6A0
:100B80009E899923D1F690910103992309F47BC0A2
:100B9000913009F4A0C0923081F61092010382E0F6
:100BA00093E06DE970E00E94011281E062E073E081
:100BB0000E949E028091A101882319F282E093E0B5
:100BC0006CE870E00E94011280E062E073E00E9435
:100BD0009E0282E093E06DE970E00E94011281E0E4
:100BE00062E073E00E949E021092A10180E0B801D1
:100BF0000E9411078981813009F0ABCF8F81882352
:100C000009F0A7CF809101030E9445058B818130B7
:100C100009F0A3CF9985992309F09FCF9091010303
:100C2000992309F44AC0913009F463C0923009F065
:100C300098CF1092010382E093E06DE970E00E948A
:100C4000011281E062E073E00E949E0281E0B70140
:100C50000E9411078D85813009F08BCF8B89882305
:100C600009F087CF809101030E9445058F8581306F
:100C700009F083CF9D89992309F07FCF90910103DB
:100C8000992309F085CF8093010382E093E061EB23
:100C900070E00E94011281E062E073E00E949E0217
:100CA0004CCF9A85992309F05CCF90910103992349
:100CB00021F0913009F0BACFBCCF8093010382E0DC
:100CC00093E061EB70E00E94011281E062E073E06A
:100CD0000E949E0246CFD092010382E093E065EC31
:100CE00070E00E94011281E062E073E00E949E02C7
:100CF00024CFD092010382E093E065EC70E00E9483
:100D0000011281E062E073E00E949E022ACF8AB164
:100D100080638AB91092800085E0809381000895F5
:100D2000EFE6F0E080818E7F80838BB18F7C8BB982
:100D300008958091130308950F931F93182F062F82
:100D4000843FC0F440E050E088E120E020931403A9
:100D5000809F002D1124009313035093850040932E
:100D60008400B09A80916F00816080936F001F9122
:100D70000F910895282F30E040E050E064E274EFD6
:100D800080E090E00E94CB112195812F6AE00E94C3
:100D9000AC11422F50E0DACF1F920F920FB60F9294
:100DA00011242F938F939F932FB78091140390E07A
:100DB00090938500809384008BB190E189278BB953
:100DC0005C990CC080911303815080931303882396
:100DD00029F480916F008E7F80936F002FBF9F91C9
:100DE0008F912F910F900FBE0F901F901895FC01BF
:100DF0001082118212821382148215821682178247
:100E00001086118612861386089581B111B88AB1B1
:100E100083738AB982B18FEF82B98BB18C6C8BB935
:100E20000895FB01908196839181978392819087A9
:100E30009381918794819287958193878823A9F4E0
:100E4000019916C081E08083009B15C01182029B2E
:100E500016C01282039B17C01382049B18C0148211
:100E6000059919C081E0858308958130B1F0089516
:100E700010820099EBCF81E081830299EACF81E073
:100E800082830399E9CF81E083830499E8CF81E0ED
:100E90008483059BE7CF15820895069B13C01082BB
:100EA00007991BC081E081834B9B14C012824A9B2F
:100EB0000EC013824E9B08C014824F99ECCF81E084
:100EC000858308958083ECCF81E08483F6CF81E031
:100ED0008383F0CF81E08283EACF1182E5CF08954A
:100EE00024982C9AE8E6F0E0808182608083ECE62A
:100EF000F0E0808180618083089578940895ECE625
:100F0000F0E080818F7E80830895CF93DF93C5E1E9
:100F1000D3E0CE0169ED70E00E94011280E0BE01D5
:100F20000E949E02CE016AEE70E00E94011281E0F2
:100F3000BE010E949E0281E08093A101DF91CF91CA
:100F400008951F920F920FB60F920BB60F921124B5
:100F50001F932F933F934F935F936F937F938F9341
:100F60009F93AF93BF93EF93FF931FB78FE99FE0DA
:100F70000197F1F700C000000E94850778941FBF19
:100F8000FF91EF91BF91AF919F918F917F916F9161
:100F90005F914F913F912F911F910F900BBE0F903A
:100FA0000FBE0F901F901895CF92DF92EF92FF9295
:100FB0000F931F93CF93DF9380913303909134036A
:100FC0008530910509F444C1863091050CF45AC06E
:100FD0008830910509F4AEC08336910509F4A0C0AC
:100FE0008630910509F045C040913103509132039C
:100FF00060912B0370912C038091A402FA01E29579
:10100000F295F07FFE27E07FFE27E60FF71FEE55F3
:10101000FE4F80830E94990360912B0370912C03F3
:101020006F3071050CF0F5C74091310350913203D8
:10103000FA01E295F295F07FFE27E07FFE27E60FAA
:10104000F71FED55FE4F8081992787FD909590936E
:10105000A5028093A40283E080836F5F0E949903BE
:1010600080912B0390912C03019690932C038093F5
:101070002B03DF91CF911F910F91FF90EF90DF90A5
:10108000CF9008958230910509F49BC0843091057A
:1010900081F7409131035091320360912B0370919D
:1010A0002C038091A402FA01E295F295F07FFE27CD
:1010B000E07FFE27E60FF71FEE55FE4F80830E946C
:1010C000990360912B0370912C031616170614F0E8
:1010D0000C946A104091310350913203FA01E29569
:1010E000F295F07FFE27E07FFE27E60FF71FEF5512
:1010F000FE4F8081992787FD90959093A50280935C
:10110000A40283E0808361500E94990380912B03A5
:1011100090912C03019790932C0380932B03A9CFDC
:101120008091A2029091A30201969093A3028093D2
:10113000A2029FCF409131035091320360912B0363
:1011400070912C038091A402FA01E295F295F07F50
:10115000FE27E07FFE27E60FF71FEE55FE4F808348
:101160000E949903409131035091320314161506E1
:101170000CF094C7FA01319760912B0370912C0306
:10118000E295F295F07FFE27E07FFE27E60FF71F3E
:10119000EE55FE4F8081992787FD90959093A5028B
:1011A0008093A40283E0808341500E949903809140
:1011B000310390913203019790933203809331036E
:1011C00058CF409131035091320360912B037091BD
:1011D0002C038091A402FA01E295F295F07FFE279C
:1011E000E07FFE27E60FF71FEE55FE4F80830E943B
:1011F000990340913103509132034F3051050CF067
:1012000033C7FA01319660912B0370912C03E2955C
:10121000F295F07FFE27E07FFE27E60FF71FEE55E1
:10122000FE4F8081992787FD90959093A50280932A
:10123000A40283E080834F5F0E9499038091310371
:10124000909132030196909332038093310311CF32
:10125000A0912B03B0912C03BD01B0933003A09358
:101260002F03B0933A03A0933903009131031091F7
:101270003203109338030093370310936E030093E7
:101280006D038091A4029091A502009709F0F1CE20
:10129000003111050CF0A6C098012F5F3F4FF901F6
:1012A000E295F295F07FFE27E07FFE27EA0FFB1F15
:1012B000EE55FE4F4081442309F494C080919B0178
:1012C00090919C01552747FD50954817590709F4FF
:1012D00089C00F30110509F485C0C1E0D0E02FC0EE
:1012E000890110936E0300936D03003111050CF01A
:1012F00075C098012F5F3F4FF901E295F295F07F9D
:10130000FE27E07FFE278091390390913A03E80F92
:10131000F91FEE55FE4F4081442309F45FC08091D0
:101320009B0190919C01552747FD509548175907FF
:1013300009F454C00F30110509F450C0BD010E5F0F
:101340001F4F02951295107F1027007F10270A0F5C
:101350001B1F0E551E4FF8014081552747FD509524
:101360008417950709F0BCCF89014091370350914C
:101370003803241735072CF42CC060912B0370918F
:101380002C0380919B01FA01E295F295F07FFE27F4
:10139000E07FFE27E60FF71FEE55FE4F80830E9489
:1013A000990340913703509138034F5F5F4F50933B
:1013B00038034093370300916D0310916E030F5F64
:1013C0001F4F04171507CCF660912B0370912C0367
:1013D000DB01D0932A03C093290383CF009131030B
:1013E00010913203B0933A03A0933903B0933003C2
:1013F000A0932F03C80110936E0300936D03109305
:10140000380300933703181619060CF0A3C098018F
:1014100021503040F901E295F295F07FFE27E07F00
:10142000FE27EA0FFB1FEE55FE4FE081EE2309F485
:1014300091C040919B0150919C01FF27E7FDF095E1
:10144000E417F50709F486C00130110509F482C0DC
:10145000C1E0D0E02FC0019790936E0380936D039D
:10146000181619060CF072C09C0121503040F90189
:10147000E295F295F07FFE27E07FFE274091390349
:1014800050913A03E40FF51FEE55FE4FE081EE2335
:1014900009F45CC040919B0150919C01FF27E7FD3E
:1014A000F095E417F50709F451C08130910509F46E
:1014B0004DC0BD01FC013297E295F295F07FFE2709
:1014C000E07FFE27EA0FFB1FEE55FE4FE081FF276E
:1014D000E7FDF0954E175F0709F0BDCF4091370348
:1014E00050913803421753072CF416C660912B0312
:1014F00070912C0380919B01FA01E295F295F07FA7
:10150000FE27E07FFE27E60FF71FEE55FE4F808394
:101510000E94990340913703509138034150504045
:10152000509338034093370380916D0390916E037D
:10153000019748175907D4F660912B0370912C033B
:10154000DB01D0932A03C093290386CF0091310396
:1015500010913203B0933A03A0933903B093300350
:10156000A0932F03F80110936E0300936D03109363
:10157000380300933703A031B1050CF0D6C5A8019C
:1015800042955295507F5427407F5427EA01CE550B
:10159000DE4FCA0FDB1F8981882309F49DC0E090CC
:1015A0009B01F0909C01992787FD90958E159F05D2
:1015B00009F492C0AF30B10509F4D0C59D01CD0149
:1015C000CC24DD24C39435C0CB01019690933A031B
:1015D00080933903803191050CF07FC0C0916D0379
:1015E000D0916E03C295D295D07FDC27C07FDC27D7
:1015F000CE55DE4FC80FD91F4981442309F46DC071
:10160000E0909B01F0909C01552747FD50954E15A9
:101610005F0509F462C08F30910509F45EC0F801DE
:101620009D01BC01A80142955295507F5427407FEF
:101630005427EA01CE55DE4FC80FD91F8A8199275A
:1016400087FD9095E816F90609F0BECFCB0101960B
:1016500060912F0370913003861797077CF437C091
:10166000409131035091320320912B0330912C0390
:1016700042955295507F5427407F542780919B017B
:10168000460F571F4E555E4FDA018C93622F4091E3
:1016900037030E94990360912F03709130036F5FAD
:1016A0007F4F7093300360932F03809139039091A3
:1016B0003A030196861797079CF620912B033091E9
:1016C0002C03D9010091310310913203F801D0921B
:1016D0002A03C09229037ACF9D01B0933A03A093C5
:1016E0003903B0933003A0932F0310936E0300933C
:1016F0006D0310933803009337031A161B060CF082
:10170000A6C0A80142955295507F5427407F542788
:10171000E901C40FD51FCF55DE4F6881662309F458
:1017200096C080919B0190919C01772767FD7095F1
:101730006817790709F48BC02130310509F487C097
:10174000B901C1E0D0E035C021503040B90130933B
:101750003A0320933903121613060CF074C0A091BB
:101760006D03B0916E03A295B295B07FBA27A07FAA
:10177000BA27A60FB71FAF55BE4F2C91222309F4ED
:1017800062C080919B0190919C01332727FD309589
:101790002817390709F457C06130710509F453C09F
:1017A000F8019B01A80142955295507F5427407F34
:1017B0005427640F751F60567E4FDB016C917727AD
:1017C00067FD70958617970709F0BECF60912F03CC
:1017D0007091300321503040621773075CF42EC0C3
:1017E000409131035091320342955295507F5427D6
:1017F000407F542780919B01460F571F4E555E4FE7
:10180000FA018083409137030E94990360912F036E
:1018100070913003615070407093300360932F03D8
:101820002091390330913A032150304062177307F9
:10183000BCF60091310310913203F801D0932A03D2
:10184000C093290383CFA0912B03B0912C03CD012A
:10185000B0933A03A0933903B0933003A0932F03BE
:1018600010936E0300936D031093380300933703B6
:10187000A031B1050CF0CFC0003111050CF0CBC088
:1018800098012F5F3F4FE901C295D295D07FDC27A9
:10189000C07FDC27CE55DE4FCA0FDB1F6981662370
:1018A00009F4B9C040919B0150919C01772767FDD5
:1018B00070956417750709F4AEC00F30110509F46F
:1018C000AAC0AF30B10509F4A6C0C1E0D0E039C06C
:1018D0000196F90190933A0380933903F0936E03D4
:1018E000E0936D03803191050CF08DC0E031F1057E
:1018F0000CF089C09F012F5F3F4FD901A295B2958F
:10190000B07FBA27A07FBA27AE55BE4FA80FB91F28
:1019100011966C911197662309F475C040919B0153
:1019200050919C01772767FD70956417750709F43E
:101930006AC0EF30F10509F466C08F30910509F4F3
:1019400062C0E295F295F07FFE27E07FFE27EE531E
:10195000FE4FE80FF91F6281772767FD70954617E4
:10196000570709F0B5CF019660912F0370913003AE
:10197000861797070CF4D5C3F901409137035091AE
:101980003803241735074CF439C0E0916D03F0910A
:101990006E033196E417F5078CF180919B01FA01F3
:1019A000E295F295F07FFE27E07FFE27E60FF71F16
:1019B000EE55FE4F80830E94990360912F03709132
:1019C00030036F5F7F4F7093300360932F0340911C
:1019D0003703509138034F5F5F4F50933803409364
:1019E00037038091390390913A0301968617970740
:1019F00064F6E0916D03F0916E033196D0932A0363
:101A0000C093290367CF0091310310913203A09155
:101A10002B03B0912C03AD01B0933A03A09339038B
:101A2000B0933003A0932F0310936E0300936D03C4
:101A300010933803009337031A161B060CF0D4C01A
:101A4000101611060CF0D0C0C8010197FC01E295F8
:101A5000F295F07FFE27E07FFE27EA0FFB1FEF5590
:101A6000FE4F2081222309F4BFC060919B01709139
:101A70009C01332727FD30952617370709F4B4C09A
:101A80000130110509F4B0C0A130B10509F4ACC0B2
:101A9000F8019D0101E010E03BC09A012150304067
:101AA00030933A0320933903FC0190936E038093A3
:101AB0006D03121613060CF08FC0181619060CF0E1
:101AC0008BC0DC011197AD0142955295507F542790
:101AD000407F5427420F531F4F555E4FEA01488104
:101AE000442309F479C060919B0170919C015527B2
:101AF00047FD50954617570709F46EC08130910590
:101B000009F46AC02130310509F466C0A901CD018C
:101B1000E295F295F07FFE27E07FFE27E20FF31FAC
:101B2000E058FE4F2081332727FD30956217730759
:101B300009F0B3CF60912F03709130039A012150C7
:101B40003040621773070CF442C040913703509144
:101B50003803481759074CF43AC080916D039091AF
:101B60006E0301974817590794F180919B01FA0180
:101B7000E295F295F07FFE27E07FFE27E60FF71F44
:101B8000EE55FE4F80830E94990360912F03709160
:101B90003003615070407093300360932F03409185
:101BA00037035091380341505040509338034093CD
:101BB00037032091390330913A03215030406217A6
:101BC00073075CF680916D0390916E0301971093FB
:101BD0002A030093290364CF00913103109132034B
:101BE000A0912B03B0912C039D01B0933A03A093D5
:101BF0003903B0933003A0932F03C80110936E03F1
:101C000000936D0310933803009337031A161B06D5
:101C10000CF0D1C0003111050CF0CDC0A8014F5F10
:101C20005F4FFA01E295F295F07FFE27E07FFE27F5
:101C3000EA0FFB1FEF55FE4FE081EE2309F4BBC016
:101C400060919B0170919C01FF27E7FDF095E617DD
:101C5000F70709F4B0C00F30110509F4ACC0A1308A
:101C6000B10509F4A8C0C1E0D0E039C0CA01F9014A
:101C700031979F01F0933A03E093390390936E03F9
:101C800080936D031E161F060CF08DC080319105E8
:101C90000CF089C0AC014F5F5F4FDA01A295B2959D
:101CA000B07FBA27A07FBA27AE0FBF1FAF55BE4F78
:101CB000AC91AA2309F477C060919B0170919C01BB
:101CC000BB27A7FDB095A617B70709F46CC08F30E6
:101CD000910509F468C0E130F10509F464C0FC0124
:101CE000E295F295F07FFE27E07FFE27E20FF31FDB
:101CF000E054FE4F8081992787FD909568177907FA
:101D000009F0B4CF60912F0370913003215030401F
:101D1000621773070CF402C2CA0140913703509155
:101D20003803841795074CF4FEC180916D039091A0
:101D30006E030196841795078CF180919B01FA013F
:101D4000E295F295F07FFE27E07FFE27E60FF71F72
:101D5000EE55FE4F80830E94990360912F0370918E
:101D60003003615070407093300360932F034091B3
:101D70003703509138034F5F5F4F509338034093C0
:101D80003703E0913903F0913A0331976E177F07DB
:101D900064F680916D0390916E030196D0932A03AF
:101DA000C093290366CF0091310310913203A091B3
:101DB0002B03B0912C03B0933A03A0933903B09353
:101DC0003003A0932F0310936E0300936D031093C1
:101DD000380300933703A031B1050CF0C6C01016CC
:101DE00011060CF0C2C0C8010197FC01E295F29502
:101DF000F07FFE27E07FFE27EE55FE4FEA0FFB1F28
:101E00004181442309F4B1C020919B0130919C0190
:101E1000552747FD50954217530709F4A6C00130D6
:101E2000110509F4A2C0AF30B10509F49EC0C1E0AC
:101E3000D0E037C0119601501040B0933A03A09300
:101E4000390310936E0300936D03A031B1050CF0BC
:101E50008CC0101611060CF088C0C8010197FC0157
:101E6000E295F295F07FFE27E07FFE27EE55FE4FCC
:101E7000EA0FFB1F4181442309F477C020919B01A5
:101E800030919C01552747FD50954217530709F49F
:101E90006CC00130110509F468C0AF30B10509F418
:101EA00064C0F801E295F295F07FFE27E07FFE27FF
:101EB000EE57FE4FEA0FFB1F4281552747FD509515
:101EC0002417350709F0B6CF119660912F03709152
:101ED0003003A617B7070CF441C040913703509167
:101EE00038034817590754F439C000916D03109115
:101EF0006E03015010404017510794F180919B01EF
:101F0000FA01E295F295F07FFE27E07FFE27E60FCB
:101F1000F71FEE55FE4F80830E94990360912F03B7
:101F2000709130036F5F7F4F7093300360932F0386
:101F3000409137035091380341505040509338033B
:101F400040933703A0913903B0913A031196A61735
:101F5000B7075CF600916D0310916E0301501040BD
:101F6000D0932A03C093290368CF809129039091CD
:101F70002A038130910509F07CC88091A2029091DA
:101F8000A30201969093A3028093A20280919D01E7
:101F900090919E01019690939E0180939D014091A6
:101FA00031035091320360912B0370912C03809187
:101FB0009B01FA01E295F295F07FFE27E07FFE2774
:101FC000E60FF71FEE55FE4F80830E949903409164
:101FD00031035091320360912B0370912C03FA016D
:101FE000E295F295F07FFE27E07FFE27E60FF71FD0
:101FF000EE55FE4F8081992787FD90959093A5021D
:102000008093A40283E0808380919B010E949903C6
:1020100030C84091310350913203FA013197E29573
:10202000F295F07FFE27E07FFE27E60FF71FEE55C3
:10203000FE4F8081992787FD90959093A50280930C
:10204000A402FA01E295F295F07FFE27E07FFE27D9
:10205000EE55FE4F83E0808360E00E94990310926A
:102060002C0310922B0305C860912B0370912C0355
:10207000FB01EE55FE4F8081992787FD9095909347
:10208000A5028093A40283E0808340E00E9499032C
:1020900010923203109231030C94390860912B0393
:1020A00070912C03FB01EE56FD4F8081992787FD2F
:1020B00090959093A5028093A40283E080834FE0E3
:1020C0000E9499038FE090E0909332038093310354
:1020D0000C9439084091310350913203FA01E29592
:1020E000F295F07FFE27E07FFE27EE55FE4F8785B5
:1020F000992787FD90959093A5028093A40283E091
:1021000087876FE00E9499038FE090E090932C0303
:1021100080932B030C943908019713CACA01F90163
:102120003DCEF9016BCCF90139CE9D01A801429554
:102130005295507F5427407F542730933A03209381
:1021400039033093300320932F0310936E030093D1
:102150006D031093380300933703DACA2FE030E0A1
:10216000ECCFCF93DF93EC010E941E0381E0BE0110
:102170000E9411078A81813009F44AC08B81813025
:1021800009F456C08C81813009F462C08D818130A0
:1021900009F46EC08881813009F47AC08981813068
:1021A00019F78F81882301F783E690E09093340339
:1021B0008093330381E067E771E00E949E0200D0C4
:1021C00000D000D0EDB7FEB73196CBE3D3E0ADB78A
:1021D000BEB71296DC93CE93119788E891E0938373
:1021E00082838091A4029091A502958384830E94AA
:1021F00008128DB79EB706960FB6F8949EBF0FBE15
:102200008DBF80E0BE010E949E02DF91CF910895B4
:102210008885882309F0B2CF88E090E0909334035A
:102220008093330381E062E271E00E949E02C7CF97
:102230008985882309F0A6CF82E090E0909334034B
:102240008093330381E063E371E00E949E02B7CF85
:102250008A85882309F09ACF84E090E09093340334
:102260008093330381E064E471E00E949E02A7CF73
:102270008B85882309F08ECF86E090E0909334031D
:102280008093330381E065E571E00E949E0297CF61
:102290008E81882309F082CF85E090E0909334030B
:1022A0008093330381E066E671E00E949E0287CF4F
:1022B000EF92FF920F931F93DF93CF93CDB7DEB7CB
:1022C0002C970FB6F894DEBF0FBECDBF81E0809390
:1022D000190280932A0267E047E00E94990381E097
:1022E00068E048E00E94990382E080931A0280939C
:1022F000290267E048E00E94990382E068E047E035
:102300000E94990383E08093A20160E040E00E9474
:1023100099038E010F5F1F4FC8010E94F70642E02C
:10232000E42EF12C109234031092330310922A03FE
:1023300010922903C8010E94B1100E94D407809115
:10234000A2029091A302B7010E94B8110196909346
:102350009C0180939B01E6CF991B79E004C0991FF3
:10236000961708F0961B881F7A95C9F780950895EF
:1023700097FB092E07260AD077FD04D02ED006D071
:1023800000201AF4709561957F4F0895F6F79095A7
:1023900081959F4F0895A1E21A2EAA1BBB1BFD0138
:1023A0000DC0AA1FBB1FEE1FFF1FA217B307E40734
:1023B000F50720F0A21BB30BE40BF50B661F771F8C
:1023C000881F991F1A9469F760957095809590956C
:1023D0009B01AC01BD01CF010895AA1BBB1B51E1BC
:1023E00007C0AA1FBB1FA617B70710F0A61BB70B85
:1023F000881F991F5A95A9F780959095BC01CD012A
:102400000895FB01DC0105900D920020E1F708958D
:102410000F931F93DF93CF93CDB7DEB72E970FB6F1
:10242000F894DEBF0FBECDBF0D891E8986E08C8378
:102430001A8309838FEF9FE79E838D839E01275E1A
:102440003F4FCE0101966F89788DA9010E94381205
:10245000EF81F885E00FF11F10822E960FB6F894E9
:10246000DEBF0FBECDBFCF91DF911F910F910895B9
:102470002F923F924F925F926F927F928F929F9294
:10248000AF92BF92CF92DF92EF92FF920F931F9382
:10249000DF93CF93CDB7DEB72C970FB6F894DEBF9E
:1024A0000FBECDBF6C011B018A01FC011782168291
:1024B000838181FFD1C12E010894411C511CF6017A
:1024C0009381F10193FD859193FF81911F018823F1
:1024D00009F4BEC1853239F493FD859193FF819152
:1024E0001F01853229F490E0B6010E945E14E7CF07
:1024F000EE24FF2420E02032B0F48B3269F08C32DD
:1025000028F4803251F0833271F40BC08D3239F0EF
:10251000803349F421602CC02260246029C02860E7
:1025200027C0206125C027FD2CC0382F30533A30FA
:1025300098F426FF08C08E2D880FE82EEE0CEE0CC6
:10254000E80EE30E15C08F2D880FF82EFF0CFF0C40
:10255000F80EF30E20620CC08E3221F426FD78C1F5
:10256000206406C08C3611F4206802C0883649F415
:10257000F10193FD859193FF81911F01882309F05B
:10258000BACF982F9554933018F09052933028F486
:102590000C5F1F4FFFE3F9830DC0833631F08337A3
:1025A00071F0833509F060C022C0F8018081898311
:1025B0000E5F1F4F420171E0A72EB12C16C062E0E2
:1025C000662E712C600E711EF8018080918026FFAE
:1025D00003C06E2D70E002C06FEF7FEFC4012C8747
:1025E0000E9453145C0183012C852F7717C052E0A1
:1025F000652E712C600E711EF8018080918026FF7F
:1026000003C06E2D70E002C06FEF7FEFC4012C8716
:102610000E9448145C012C852068830123FD20C0A2
:1026200008C080E290E0B6012C870E945E14FA9404
:102630002C858F2D90E0A816B90698F311C0F401EF
:1026400027FD859127FF81914F0190E0B6012C87EE
:102650000E945E142C85F110FA940894A108B10828
:10266000A114B10461F7F1C0843611F0893649F53F
:1026700027FF08C0F80160817181828193810C5F1E
:102680001F4F09C0F80160817181882777FD80950F
:10269000982F0E5F1F4F4FE6B42EB22297FF09C04E
:1026A00090958095709561957F4F8F4F9F4FF0E883
:1026B000BF2AA2012AE030E00E948A14782E741802
:1026C00045C0853731F43FEEB32EB2222AE030E028
:1026D00025C099EFB92EB2228F36C1F0803720F491
:1026E000883509F0B5C00DC0803721F0883709F072
:1026F000AFC002C020E1B22AB4FE0BC084E0B82A09
:1027000008C0B4FE09C0E6E0BE2A06C028E030E0FA
:1027100005C020E130E002C020E132E0B7FE08C091
:10272000F80160817181828193810C5F1F4F07C026
:10273000F8016081718180E090E00E5F1F4FA2017F
:102740000E948A14782E7418FFE7BF22B6FE0BC0D1
:102750002EEFB2227E1438F4B4FE07C0B2FC05C0DE
:102760008FEEB82202C0A72C01C0AE2C8B2D90E0BA
:10277000B4FE0DC0FE01E70DF11D2081203319F4D8
:10278000E9EEBE2209C0A394B2FE06C004C086785A
:102790009070009709F0A3948B2C9924B3FC14C07B
:1027A000B0FE0FC0AF1428F4E72CEF0CEA18AF2CE2
:1027B00008C0E72C06C080E290E0B6010E945E14DB
:1027C000A394AF14C0F304C0AF1410F4FA1801C0FE
:1027D000FF2484FE0FC080E390E0B6010E945E14E7
:1027E00082FE1FC081FE03C088E590E010C088E72C
:1027F00090E00DC0C40186789070009791F081FC44
:1028000002C080E201C08BE2B7FC8DE290E0B6012D
:102810000E945E1406C080E390E0B6010E945E1440
:10282000EA947E14C0F37A94F201E70DF11D8081E1
:1028300090E0B6010E945E147720A9F706C080E2FE
:1028400090E0B6010E945E14FA94FF20C1F737CEE3
:10285000F6012681378102C02FEF3FEFC9012C9688
:102860000FB6F894DEBF0FBECDBFCF91DF911F91A1
:102870000F91FF90EF90DF90CF90BF90AF909F901F
:102880008F907F906F905F904F903F902F90089522
:10289000FC010590615070400110D8F7809590952B
:1028A0008E0F9F1F0895FC01615070400190011030
:1028B000D8F7809590958E0F9F1F08950F931F93C3
:1028C000CF93DF938C01EB018B8181FF1BC082FFD3
:1028D0000DC02E813F818C819D812817390764F4BA
:1028E000E881F9810193F983E88306C0E885F985D9
:1028F000802F0995009731F48E819F8101969F83E7
:102900008E8302C00FEF1FEFC801DF91CF911F919F
:102910000F910895FA01AA27283051F1203181F151
:10292000E8946F936E7F6E5F7F4F8F4F9F4FAF4FD7
:10293000B1E03ED0B4E03CD0670F781F891F9A1FEA
:10294000A11D680F791F8A1F911DA11D6A0F711D9E
:10295000811D911DA11D20D009F468943F912AE0AA
:10296000269F11243019305D3193DEF6CF01089592
:10297000462F4770405D4193B3E00FD0C9F7F6CFC3
:10298000462F4F70405D4A3318F0495D31FD40528B
:10299000419302D0A9F7EACFB4E0A6959795879521
:1029A00077956795BA95C9F7009761057105089500
:1029B0009B01AC010A2E06945795479537952795AC
:1029C000BA95C9F7620F731F841F951FA01D089544
:0429D000F894FFCFA9
:1029D40052756E6E696E672044656D6F2E2E2E20C3
:1029E4000020202020202020202020202020202003
:1029F4002000756520202020202020202020202059
:102A040020200073697461202020202020202020B1
:102A14002020200068696461726920202020202021
:102A240020202020006D696769202020202020209C
:102A340020202020200070757420202020202020B9
:102A440020202020202000736B697020202020206B
:102A540020202020202020006F6C645F6D61703D79
:102A640025642020202020202020000100010000D7
:00000001FF
